:100000000C9469000C9486000C9486000C94860075
:100010000C9486000C9486000C9486000C94860048
:100020000C9486000C9486000C9486000C94860038
:100030000C9486000C9486000C9476010C94860037
:100040000C9486000C9445010C9486000C94860058
:100050000C9486000C9486000C9486000C94860008
:100060000C9486000C948600036EDB363D9A9999B9
:10007000993DABAAAA2A3E000000803F084AD73B20
:100080003BCE016E84BCBFFDC12F3D6C74319ABD67
:1000900056833DDA3D00C77F11BED9E4BB4C3E918B
:1000A0006BAAAABE000000803F072C7AA5BA6CC5D7
:1000B00090DA3B9365FC8BBC53F810FD3C56928361
:1000C0004DBD879D3AB63DCBC9BF5BBE73DA0FC944
:1000D0003F0011241FBECFEFD8E0DEBFCDBF11E03F
:1000E000A0E0B1E0E2E3FFE202C005900D92AE3481
:1000F000B107D9F711E0AEE4B1E001C01D92A73A13
:10010000B107E1F70E94A8000C9407110C940000BD
:10011000CF93DF93FC0184819581A681B781EB01A8
:1001200088839983AA83BB8380859185A285B385C3
:100130008C839D83AE83BF8384859585A685B78593
:10014000FB0180879187A287B387DF91CF910895C4
:100150008F929F92AF92BF92CF92DF92EF92FF92D7
:100160000F931F93CF93DF9382E084BD93E095BDFF
:1001700080936E0089EF87BD0E943F050E94650253
:100180000E94A9017894C0E0D1E080914E01909145
:100190004F0184E891E00E942503809188019091AD
:1001A0008901A0918A01B0918B018093780190938D
:1001B0007901A0937A01B0937B0180918C01909199
:1001C0008D01A0918E01B0918F0180937C0190935D
:1001D0007D01A0937E01B0937F0180919001909169
:1001E0009101A0919201B09193018093800190932D
:1001F0008101A0938201B093830160917C01709191
:100200007D0180917E0190917F01C0907801D09016
:100210007901E0907A01F0907B01809080019090CC
:100220008101A0908201B09083012DB73EB7285084
:1002300030400FB6F8943EBF0FBE2DBF0DB71EB7AE
:100240000F5F1F4FEDB7FEB7D283C1830E948713A4
:10025000F80173836283C701B6010E948713F80116
:1002600075836483C501B4010E948713F801778305
:1002700066830E94E1132DB73EB7285F3F4F0FB64C
:10028000F8943EBF0FBE2DBF80CF1F920F920FB6C6
:100290000F9211242F933F934F935F936F937F930C
:1002A0008F939F93AF93BF93EF93FF930E949C1004
:1002B0008A3539F0833C49F484E791E00E94C50116
:1002C00004C088E791E00E94DF01FF91EF91BF91A8
:1002D000AF919F918F917F916F915F914F913F91DE
:1002E0002F910F900FBE0F901F9018951F920F9295
:1002F0000FB60F9211248F939F9380914E0190918E
:100300004F01019690934F0180934E019F918F91E1
:100310000F900FBE0F901F9018951F93182F8A30C3
:1003200019F48DE00E948D018091C00085FFFCCF03
:100330001093C600212F332727FD3095C9011F9147
:1003400008958091C00087FFFCCF8091C60090E0A7
:1003500008951092C50080E18093C40088E18093E5
:10036000C10086E08093C2008AE191E09093A401ED
:100370008093A3019093A6018093A5018CE091E066
:100380009093A2018093A10108950F931F938C0174
:100390000E948E100E949710F80180830E9497108F
:1003A000F80181830E949710F80182830E949710C0
:1003B000F80183830E948A101F910F9108950F9373
:1003C0001F938C010E948E10F80180810E94921070
:1003D000F80181810E949210F80182810E9492109E
:1003E000F80183810E949210F80184810E9492108A
:1003F000F80185810E949210F80186810E94921076
:10040000F80187810E949210F80180850E94921065
:10041000F80181850E949210F80182850E94921055
:10042000F80183850E9492100E948A101F910F91FB
:1004300008950F931F938C0183EC0E949210F80192
:1004400080810E949210F80181810E949210F8012F
:1004500082810E949210F80183810E9492101F9164
:100460000F910895FF920F931F93CF93DF938C0109
:100470008AE50E949210C0E0D0E080E00E949E10C9
:10048000F801EC0FFD1F80832196C430D105A9F738
:10049000E801FF2480E00E949E108C83F394219653
:1004A00084E0F816B9F7FF2480E00E949E10F8015E
:1004B0008087F3940F5F1F4FF4E0FF16A9F7DF91D9
:1004C000CF911F910F91FF9008950E947C10089585
:1004D0000E9477100895982F84EA8093BC00809141
:1004E000BC0087FFFCCF990F9093BB0084E88093FA
:1004F000BC008091BC0087FFFCCF6093BB0084E808
:100500008093BC008091BC0087FFFCCF4093BB0070
:1005100084E88093BC008091BC0087FFFCCF84E915
:100520008093BC0080E00895982FFA0184EA8093BC
:10053000BC008091BC0087FFFCCF892F880F80937F
:10054000BB0084E88093BC008091BC0087FFFCCF97
:100550006093BB0084E88093BC008091BC0087FF5F
:10056000FCCF84EA8093BC008091BC0087FFFCCF65
:10057000990F91609093BB0084E88093BC008091B8
:10058000BC0087FFFCCF84E88093BC008091BC0056
:1005900087FFFCCF8091BB00808384E98093BC00FF
:1005A00080E00895982FF90184EA8093BC0080913F
:1005B000BC0087FFFCCF892F880F8093BB0084E8A5
:1005C0008093BC008091BC0087FFFCCF6093BB0090
:1005D00084E88093BC008091BC0087FFFCCF84EA54
:1005E0008093BC008091BC0087FFFCCF990F916085
:1005F0009093BB0084E88093BC008091BC0087FF8F
:10060000FCCF20E030E050E04150504094EC0BC073
:100610009093BC008091BC0087FFFCCF8091BB0011
:1006200081932F5F3F4F2417350794F384E880931D
:10063000BC008091BC0087FFFCCF8091BB00808311
:1006400084E98093BC0080E008952F923F924F92FE
:100650005F926F927F928F929F92AF92BF92CF9252
:10066000DF92EF92FF920F931F93DF93CF93CDB75B
:10067000DEB7A0970FB6F894DEBF0FBECDBF9E8B3E
:100680008D8B88E663E446E06E010894C11CD11CA2
:1006900096010E94D202998180E0EA80FF24E82A34
:1006A000F92AF0929501E09294019B8180E02C80E0
:1006B0003324282A392A30929701209296013D81CD
:1006C00020E06E8170E0622B732B70939901609330
:1006D0009801882777FD8095982F0E94731520E058
:1006E00030E043E852E40E9409156F8B788F898FC0
:1006F0009A8F88E66BE346E096010E94D2029981C8
:1007000080E0AA80BB24A82AB92AB0929B01A092BB
:100710009A019B8180E06C807724682A792A709204
:100720009D0160929C019D8180E02E81022F10E04E
:10073000082B192B1C8B0B8B10939F0100939E0190
:100740002DB73EB7285030400FB6F8943EBF0FBECD
:100750002DBF4DB75EB74F5F5F4F5C8F4B8F00274C
:10076000F7FC0095102FC801B7010E94731520E017
:1007700030E043E852E40E94091523EC35EF48E4E9
:1007800050E40E94521620E030E044E353E40E941B
:1007900009156D8F7E8F8F8F98A3442437FC40946A
:1007A000542CC201B1010E94731520E030E043E8EF
:1007B00052E40E94091523EC35EF48E450E40E940E
:1007C000521620E030E044E353E40E9409151B0177
:1007D0002C016F89788D898D9A8D23EC35EF48E453
:1007E00050E40E94521620E030E044E353E40E94BB
:1007F00009157B018C01CC24B7FCC094DC2CC6010C
:10080000B5010E94731520E030E040E859E30E94F2
:1008100052165B016C01882477FC8094982CC401EB
:10082000B3010E94731520E030E040E859E30E94D4
:100830005216AB8DBC8D6D937D938D939C931397C6
:10084000EB89FC89BF01882777FD8095982F0E944E
:10085000731520E030E040E859E30E945216AB8D5A
:10086000BC8D14966D937D938D939C9317976D8D8E
:100870007E8D8F8D98A1A20191010E943109609116
:100880004A0170914B0180914C0190914D01209152
:100890006C0130916D0140916E0150916F01A090FB
:1008A0006801B0906901C0906A01D0906B016090BE
:1008B0007001709071018090720190907301EDB79A
:1008C000FEB738960FB6F894FEBF0FBEEDBF0E947C
:1008D00052167B018C01C601B501A40193010E944F
:1008E00052169B01AC01C801B7010E9427149B015D
:1008F000AC010E9428140E948C14AD89BE89149604
:100900006D937D938D939C93179760914A0170919D
:100910004B0180914C0190914D01209168013091E3
:10092000690140916A0150916B01A0906C01B090F7
:100930006D01C0906E01D0906F0160907001709059
:100940007101809072019090730120906801309045
:10095000690140906A0150906B01E0906801F0904D
:10096000690100916A0110916B01EF86F88A098B89
:100970001A8BE0906C01F0906D0100916E01109166
:100980006F01EB86FC860D871E87E0906C01F0906E
:100990006D0100916E0110916F01EF82F886098759
:1009A0001A870E9452167B018C01C601B501A40171
:1009B00093010E9452169B01AC01C801B7010E942D
:1009C00028149B01AC010E9428145B016C01C20138
:1009D000B1012F85388949895A890E9452167B01B5
:1009E0008C016B857C858D859E852F813885498519
:1009F0005A850E9452169B01AC01C801B7010E94A2
:100A0000281420E030E040E050EC0E94521620E034
:100A100030E040E85FE30E9428149B01AC01C6016E
:100A2000B5010E94B2149058AD89BE8918966D9395
:100A30007D938D939C931B97EF88F88C098D1A8D6D
:100A40001C96ED92FD920D931C931F97A0960FB6E6
:100A5000F894DEBF0FBECDBFCF91DF911F910F91F4
:100A6000FF90EF90DF90CF90BF90AF909F908F90CE
:100A70007F906F905F904F903F902F9008952F92AE
:100A80003F924F925F926F927F928F929F92AF921E
:100A9000BF92CF92DF92EF92FF920F931F93DF935B
:100AA000CF93CDB7DEB7C455D0400FB6F894DEBFB4
:100AB0000FBECDBF1092B9008CE08093B80084E0E7
:100AC0008093BC0088E665E7AE014E5F5F4F0E94F1
:100AD00094028093A0012A81233749F14DB75EB774
:100AE000485050400FB6F8945EBF0FBE4DBFEDB7F3
:100AF000FEB73196CE014396ADB7BEB712969C9322
:100B00008E93119780E290E09383828388E291E054
:100B100095838483268317820E94F6132DB73EB7F0
:100B2000285F3F4F0FB6F8943EBF0FBE2DBF88E63B
:100B30006BE640E80E946B0288EE93E020E931E02A
:100B4000F9013197F1F70197D9F788E66BE640E8AC
:100B50000E946B0288EE93E020E931E0F9013197C1
:100B6000F1F70197D9F788E66BE641E00E946B0246
:100B700088E66CE640E00E946B0280ED97E020E999
:100B800031E0F9013197F1F70197D9F788E668E389
:100B900040E00E946B0288E663E240E00E946B0244
:100BA00088E66BE640E00E946B0288E664E240E083
:100BB0000E946B0288E66AE640E00E946B0288E6CB
:100BC0006AE64CE00E946B0280E69AEE0197F1F72C
:100BD00088E66AE141E00E946B0288E669E140E054
:100BE0000E946B0288E66BE140E00E946B0288E69F
:100BF0006CE140E00E946B0288E66AE640E40E94F5
:100C00006B0288E663E248E70E946B0280E991E0AC
:100C100020E931E0F9013197F1F70197D9F788E63A
:100C200063E240E00E946B028E01095F1F4F88E67D
:100C300062E742E098010E94D2029F8180E028850D
:100C400030E0822B932B6CE070E00E940F176296CD
:100C50006FAF629763967FAF639761961CAE1DAED0
:100C60001EAE1FAE61972D961CAE1DAE1EAE1FAE02
:100C70002D9744245524320129961CAE1DAE1EAE7C
:100C80001FAE299725961CAE1DAE1EAE1FAE259732
:100C900021961CAE1DAE1EAE1FAE21971CAE1BAE24
:100CA00064960FAF649765961FAF6597A1C088E6FD
:100CB00064E74CE064962FAD649765963FAD659709
:100CC0000E94D2023F802224888590E082299329C5
:100CD000AA2797FDA095BA2F61962CAD3DAD4EADDC
:100CE0005FAD6197280F391F4A1F5B1F61962CAFBC
:100CF0003DAF4EAF5FAF6197998488248A8590E0BD
:100D000088299929AA2797FDA095BA2F2D962CAD51
:100D10003DAD4EAD5FAD2D97280F391F4A1F5B1FAC
:100D20002D962CAF3DAF4EAF5FAF2D97BB84AA245D
:100D30008C8590E08A299B29AA2797FDA095BA2F38
:100D4000480E591E6A1E7B1EDD84CC248E8590E0E1
:100D50008C299D29AA2797FDA095BA2F29962CADFD
:100D60003DAD4EAD5FAD2997280F391F4A1F5B1F60
:100D700029962CAF3DAF4EAF5FAF2997FF84EE248D
:100D8000888990E08E299F29AA2797FDA095BA2FE0
:100D900025962CAD3DAD4EAD5FAD2597280F391F83
:100DA0004A1F5B1F25962CAF3DAF4EAF5FAF259717
:100DB000198900E08A8990E0802B912BAA2797FD62
:100DC000A095BA2F21962CAD3DAD4EAD5FAD2197CC
:100DD000280F391F4A1F5B1F21962CAF3DAF4EAF26
:100DE0005FAF21974BAD5CAD4F5F5F4F5CAF4BAFDB
:100DF0008BAD9CAD6396AEADBFAD63978A179B0775
:100E000008F455CF5D01CC24DD24C301B201A60155
:100E100095010E942317B901CA0116161706180674
:100E200019063CF49B01AC01205030414040504039
:100E300006C09B01AC012050304F4F4F5F4F2BAB92
:100E40003CAB4DAB5EAB29966CAD7DAD8EAD9FAD31
:100E50002997A60195010E942317CA01B90124E030
:100E600030E040E050E00E942317509540953095C7
:100E700021953F4F4F4F5F4FE32EF42E052F112743
:100E800007FD1A95EF82288725966CAD7DAD8EAD56
:100E90009FAD2597A60195010E942317CA01B901AC
:100EA00024E030E040E050E00E9423175095409548
:100EB000309521953F4F4F4F5F4FBB2757FDBA9558
:100EC000A52F942F832F89872A8721966CAD7DAD1E
:100ED0008EAD9FAD2197A60195010E942317CA01EF
:100EE000B90124E030E040E050E00E942317509523
:100EF0004095309521953F4F4F4F5F4FBB2757FD92
:100F0000BA95A52F942F832F8B872C8788E663E1D2
:100F10004E2D0E946B0288E664E148850E946B02B8
:100F200088E665E149850E946B0288E666E14A85AC
:100F30000E946B0288E667E14B850E946B0288E69F
:100F400068E14C850E946B028E01095F1F4F88E6A5
:100F500067E742E098010E94D2029F8180E02885E5
:100F600030E0822B932B3C01882477FC8094982CD2
:100F700088E66AE742E098010E94D2029F8180E001
:100F8000288530E0822B932B9C01442737FD409528
:100F9000542F2FAB38AF49AF5AAF88E66DE742E028
:100FA00098010E94D2029F8180E0288530E0822B48
:100FB000932B1C01442437FC4094542CDE011496DE
:100FC000E3E4F1E083E001900D928150E1F760FEEF
:100FD00002C081E08C833FA930FF02C081E08D8395
:100FE00020FE02C081E08E8361966CAD7DAD8EAD3A
:100FF0009FAD6197A60195010E942317CA01B9010F
:1010000028E030E040E050E00E942317621A730AA3
:10101000840A950A2D966CAD7DAD8EAD9FAD2D9752
:10102000A60195010E942317CA01B90128E030E00A
:1010300040E050E00E942317EFA8F8AC09AD1AADCC
:10104000E21AF30A040B150B6BA97CA98DA99EA9C2
:1010500028E030E040E050E00E942317D201C101B7
:10106000821B930BA40BB50B9C01AD01DD2497FCF7
:10107000DA94C92CB82CA72CAF828C81862988875A
:10108000BB2717FDBA95A12F902F8F2D89878D81B2
:101090008E298A87BB2757FDBA95A52F942F832FBA
:1010A0008B878E81822B8C8788E667E74A2D0E948A
:1010B0006B0288E668E748850E946B0288E66AE76B
:1010C00049850E946B0288E66BE74A850E946B02A5
:1010D00088E66DE74B850E946B0288E66EE74C85DB
:1010E0000E946B0288E66BE640E00E946B0288EE8D
:1010F00093E020E931E0F9013197F1F70197D9F751
:1011000088E66BE641E00E946B0280ED97E020E903
:1011100031E0F9013197F1F70197D9F788E66AE1F3
:1011200042E00E946B0288E669E143E00E946B02A4
:1011300088E66DE1AE014F5F5F4F0E9494024981E6
:10114000407F498388E66DE10E946B0288E66BE18F
:10115000AE014E5F5F4F0E9494024A81477E486015
:101160004A8388E66BE10E946B0288E66CE1AE017F
:101170004D5F5F4F0E9494024B81477E40614B83DD
:1011800088E66CE10E946B02CC5ADF4F0FB6F894F0
:10119000DEBF0FBECDBFCF91DF911F910F91FF90AA
:1011A000EF90DF90CF90BF90AF909F908F907F9007
:1011B0006F905F904F903F902F900895EF92FF9225
:1011C0000F931F93DF93CF93CDB7DEB728970FB65A
:1011D000F894DEBF0FBECDBF69837A838B839C8377
:1011E000E980FA800B811C8115950795F794E794A7
:1011F0002FED39E547E35FE52E193F09400B510B11
:101200002D833E834F835887ED80FE800F811885A4
:1012100020E030E040E05FE30E945216A801970111
:101220000E945216A80197010E9452169B01AC0120
:1012300060E070E080EC9FE30E9427149B01AC010A
:10124000C801B7010E94521628960FB6F894DEBF67
:101250000FBECDBFCF91DF911F910F91FF90EF9007
:1012600008952F923F924F925F926F927F928F924A
:101270009F92AF92BF92CF92DF92EF92FF920F9325
:101280001F93DF93CF93CDB7DEB7C856D0400FB6CC
:10129000F894DEBF0FBECDBF69A37AA38BA39CA336
:1012A0002DA33EA34FA358A7A9A6BAA6CBA6DCA6FA
:1012B000609168017091690180916A0190916B0160
:1012C00060906C0170906D0180906E0190906F0144
:1012D0002090700130907101409072015090730124
:1012E000905829A13AA14BA15CA10E9452165B0122
:1012F0006C01C401B3012DA13EA14FA158A50E94CC
:1013000052169B01AC01C601B5010E9427145B0176
:101310006C01C201B101A80197010E9452169B0104
:10132000AC01C601B5010E94271420E030E040E086
:101330005FE30E9452166D877E878F87988B60913E
:101340004A0170914B0180914C0190914D01609048
:101350006C0170906D0180906E0190906F012090F3
:10136000700130907101409072015090730129A179
:101370003AA14BA15CA10E9452165B016C01C40111
:10138000B301A80197010E9452169B01AC01C6014E
:10139000B5010E9428145B016C01C201B1012DA1AD
:1013A0003EA14FA158A50E9452169B01AC01C60157
:1013B000B5010E94271420E030E040E05FE30E9486
:1013C000521669877A878B879C8760914A01709152
:1013D0004B0180914C0190914D016090680170909B
:1013E000690180906A0190906B01209070013090AB
:1013F000710140907201509073012DA13EA14FA147
:1014000058A50E9452165B016C01C401B301A801EA
:1014100097010E9452169B01AC01C601B5010E94C2
:1014200027145B016C01C201B10129A13AA14BA1B2
:101430005CA10E9452169B01AC01C601B5010E943D
:10144000281420E030E040E05FE30E9452166D83F4
:101450007E838F83988760914A0170914B018091C0
:101460004C0190914D01A0906801B0906901C0902D
:101470006A01D0906B0160906C0170906D0180905A
:101480006E0190906F01A80197010E9452167B0196
:101490008C01C601B5012DA13EA14FA158A50E9406
:1014A00052169B01AC01C801B7010E9428147B01B0
:1014B0008C01C401B30129A13AA14BA15CA10E94F6
:1014C00052169B01AC01C801B7010E94271420E00D
:1014D00030E040E05FE30E94521669837A838B8399
:1014E0009C8369A57AA58BA59CA520E030E040E00F
:1014F00050E00E940515882309F5C358DF4F688125
:1015000079818A819B81CD57D04020E030E040E056
:1015100050E00E940515882389F4CF57DF4F68817A
:1015200079818A819B81C158D04020E030E040E041
:1015300050E00E940515882309F4FCC369A57AA52B
:101540008BA59CA59B01AC010E9452167B018C01CE
:10155000C358DF4F688179818A819B81CD57D04004
:101560009B01AC010E9452169B01AC01C801B7015E
:101570000E9428147B018C01CF57DF4F688179814D
:101580008A819B81C158D0409B01AC010E945216B8
:101590009B01AC01C801B7010E9428140E94DE081B
:1015A0007B018C0169A57AA58BA59CA5A801970153
:1015B0000E9452166DA77EA78FA798ABC358DF4F26
:1015C000688179818A819B81CD57D040A80197019C
:1015D0000E94521669AB7AAB8BAB9CABCF57DF4FF7
:1015E000688179818A819B81C158D040A801970187
:1015F0000E9452166DAB7EAB8FAB98AF20914A0123
:1016000030914B0140914C0150914D01CA01B901FB
:101610000E94281469AF7AAF8BAF9CAF209168010C
:101620003091690140916A0150916B01CA01B90181
:101630000E94281421966CAF7DAF8EAF9FAF21978B
:1016400020916C0130916D0140916E0150916F01BC
:10165000CA01B9010E94281425966CAF7DAF8EAFE8
:101660009FAF2597209170013091710140917201D7
:1016700050917301CA01B9010E94281429966CAFD8
:101680007DAF8EAF9FAF299760914A0170914B015A
:1016900080914C0190914D0120E030E040E850E411
:1016A0000E9452165B016C016091680170916901A2
:1016B00080916A0190916B0120E030E040E850E4B5
:1016C0000E9452163B014C0160916C0170916D01BA
:1016D00080916E0190916F0120E030E040E850E48D
:1016E0000E9452162D966CAF7DAF8EAF9FAF2D9797
:1016F000609168017091690180916A0190916B011C
:1017000020E030E040E051E40E94521661966CAF58
:101710007DAF8EAF9FAF619760916C0170916D014D
:1017200080916E0190916F0120E030E040E051E443
:101730000E94521665966CAF7DAF8EAF9FAF6597D6
:1017400020904A0130904B0140904C0150904D0147
:10175000E0904A01F0904B0100914C0110914D0135
:10176000ED8EFE8E0F8F18A3609168017091690154
:1017700080916A0190916B0120916801309169011B
:1017800040916A0150916B010E94521669966CAFAC
:101790007DAF8EAF9FAF699760916C0170916D01C5
:1017A00080916E0190916F0120916C0130916D01DB
:1017B00040916E0150916F010E9452166D966CAF70
:1017C0007DAF8EAF9FAF6D97609170017091710189
:1017D000809172019091730120917001309171019B
:1017E00040917201509173010E945216A1966CAF04
:1017F0007DAF8EAF9FAFA197C601B5016D962CADA1
:101800003DAD4EAD5FAD6D970E9452167B018C01D0
:1018100025966CAD7DAD8EAD9FAD25972DA53EA5D2
:101820004FA558A90E9452169B01AC01C801B701EF
:101830000E9428147B018C01C601B50169962CAD6C
:101840003DAD4EAD5FAD69970E9452169B01AC0154
:10185000C801B7010E9428147B018C0121966CAD50
:101860007DAD8EAD9FAD219729A93AA94BA95CA961
:101870000E9452169B01AC01C801B7010E942714B7
:10188000A5966CAF7DAF8EAF9FAFA597C201B1019A
:101890002D8D3E8D4F8D58A10E94521620E030E0D4
:1018A00040E850E40E9452161B012C01A0906801F0
:1018B000B0906901C0906A01D0906B01C401B3017E
:1018C000A1962CAD3DAD4EAD5FADA1970E945216D5
:1018D0007B018C0129966CAD7DAD8EAD9FAD2997B6
:1018E0002DA53EA54FA558A90E9452169B01AC01FB
:1018F000C801B7010E9427147B018C01C201B1010C
:10190000A60195010E9452169B01AC01C801B701C6
:101910000E9428147B018C0169AD7AAD8BAD9CAD22
:1019200029A93AA94BA95CA90E9452169B01AC01B6
:10193000C801B7010E942714A40193010E94271433
:101940007B018C0161966CAD7DAD8EAD9FAD6197D5
:1019500069962CAD3DAD4EAD5FAD69970E945216B4
:101960009B01AC01C801B7010E9428147B018C01C6
:1019700061966CAD7DAD8EAD9FAD61976D962CADD2
:101980003DAD4EAD5FAD6D970E9452169B01AC010F
:10199000C801B7010E9428147B018C01C401B30166
:1019A0002DA93EA94FA958AD0E9452169B01AC012A
:1019B000C801B7010E942814A9966CAF7DAF8EAF05
:1019C0009FAFA99720916C0130916D0140916E01FC
:1019D00050916F01C201B1010E9452167B018C012E
:1019E00069AD7AAD8BAD9CAD2DA53EA54FA558A98F
:1019F0000E9452169B01AC01C801B7010E94281435
:101A00007B018C012D966CAD7DAD8EAD9FAD2D977C
:101A1000A1962CAD3DAD4EAD5FADA1970E94521683
:101A20009B01AC01C801B7010E9428147B018C0105
:101A300029966CAD7DAD8EAD9FAD299729A93AA9A8
:101A40004BA95CA90E9452169B01AC01C801B701C9
:101A50000E9427142D962CAD3DAD4EAD5FAD2D9758
:101A60000E9427147B018C0165966CAD7DAD8EAD17
:101A70009FAD659769962CAD3DAD4EAD5FAD699755
:101A80000E9452169B01AC01C801B7010E942814A4
:101A90007B018C0165966CAD7DAD8EAD9FAD65977C
:101AA0006D962CAD3DAD4EAD5FAD6D970E9452165B
:101AB0009B01AC01C801B7010E9428147B018C0175
:101AC0002D966CAD7DAD8EAD9FAD2D972DA93EA908
:101AD0004FA958AD0E9452169B01AC01C801B70135
:101AE0000E9428141B012C01E0907001F0907101FC
:101AF0000091720110917301A0907001B09071017A
:101B0000C0907201D090730169966CAD7DAD8EADC1
:101B10009FAD699720E030E040E850E40E94521603
:101B2000A80197010E9452167B018C0121966CAD91
:101B30007DAD8EAD9FAD21972DA53EA54FA558A992
:101B40000E9452169B01AC01C801B7010E942714E4
:101B50007B018C016D966CAD7DAD8EAD9FAD6D97AB
:101B600020E030E040E850E40E945216A6019501C2
:101B70000E9452169B01AC01C801B7010E942814B3
:101B80007B018C0125966CAD7DAD8EAD9FAD25970B
:101B900029A93AA94BA95CA90E9452169B01AC0144
:101BA000C801B7010E9427143B014C01A5966CADFA
:101BB0007DAD8EAD9FADA5979B01AC010E945216E5
:101BC0007B018C01A9966CAD7DAD8EAD9FADA997C3
:101BD0009B01AC010E9452169B01AC01C801B701E8
:101BE0000E9428147B018C01C201B101A201910164
:101BF0000E9452169B01AC01C801B7010E94281433
:101C00007B018C01C401B301A40193010E9452160F
:101C10009B01AC01C801B7010E9428140E94DE0894
:101C20005B016C01E0904601F09047010091480192
:101C300010914901A5966CAD7DAD8EAD9FADA59778
:101C4000A60195010E9452169B01AC01C801B70183
:101C50000E9452169B01AC016D857E858F85988907
:101C60000E9427146D877E878F87988BE0904601AE
:101C7000F09047010091480110914901A9966CAD7F
:101C80007DAD8EAD9FADA997A60195010E9452161C
:101C90009B01AC01C801B7010E9452169B01AC0127
:101CA00069857A858B859C850E94271469877A8748
:101CB0008B879C87E0904601F09047010091480196
:101CC00010914901C201B101A60195010E9452166D
:101CD0009B01AC01C801B7010E9452169B01AC01E7
:101CE0006D817E818F8198850E9427146D837E830C
:101CF0008F839887E0904601F0904701009148015A
:101D000010914901C401B301A60195010E94521628
:101D10009B01AC01C801B7010E9452169B01AC01A6
:101D200069817A818B819C810E94271469837A83DF
:101D30008B839C83E0904A01F0904B0100914C0111
:101D400010914D016D857E858F8598892AE037ED4C
:101D500043E25CE30E9452169B01AC01C801B7014B
:101D60000E94281460934A0170934B0180934C01A8
:101D700090934D01E0906801F090690100916A0133
:101D800010916B0169857A858B859C852AE037EDFA
:101D900043E25CE30E9452169B01AC01C801B7010B
:101DA0000E942814609368017093690180936A010E
:101DB00090936B01E0906C01F0906D0100916E01C9
:101DC00010916F016D817E818F8198852AE037EDBA
:101DD00043E25CE30E9452169B01AC01C801B701CB
:101DE0000E94281460936C0170936D0180936E01C2
:101DF00090936F01E0907001F09071010091720179
:101E00001091730169817A818B819C812AE037ED81
:101E100043E25CE30E9452169B01AC01C801B7018A
:101E20000E94281460937001709371018093720175
:101E30009093730160914A0170914B0180914C0124
:101E400090914D0120914A0130914B0140914C01FC
:101E500050914D01A0906801B0906901C0906A0155
:101E6000D0906B01609068017090690180906A0168
:101E700090906B0120906C0130906D0140906E014C
:101E800050906F01E0906C01F0906D0100916E0137
:101E900010916F01E98EFA8E0B8F1C8FE09070010C
:101EA000F09071010091720110917301ED8AFE8A28
:101EB0000F8B188FE0907001F0907101009172010A
:101EC00010917301E98AFA8A0B8B1C8B0E945216BF
:101ED0007B018C01C601B501A40193010E94521639
:101EE0009B01AC01C801B7010E9428147B018C0141
:101EF000C201B101298D3A8D4B8D5C8D0E94521625
:101F00009B01AC01C801B7010E9428147B018C0120
:101F10006D897E898F89988D29893A894B895C8959
:101F20000E9452169B01AC01C801B7010E942814FF
:101F30000E94DE087B018C0160914A0170914B0187
:101F400080914C0190914D01A80197010E94521679
:101F500060934A0170934B0180934C0190934D0123
:101F6000609168017091690180916A0190916B01A3
:101F7000A80197010E94521660936801709369014D
:101F800080936A0190936B0160916C0170916D0177
:101F900080916E0190916F01A80197010E945216E5
:101FA00060936C0170936D0180936E0190936F014B
:101FB0006091700170917101809172019091730133
:101FC000A80197010E9452166093700170937101ED
:101FD0008093720190937301C859DF4F0FB6F89444
:101FE000DEBF0FBECDBFCF91DF911F910F91FF904C
:101FF000EF90DF90CF90BF90AF909F908F907F90A9
:102000006F905F904F903F902F90089552988AB1B3
:10201000806B8AB908955F985C9840E020E030E0DA
:1020200097FF02C05D9A01C05D985F9A220F331F2F
:102030004E9921605F984F5F403119F0880F991FCA
:10204000EFCF5C9AC901089580E090E00E940B10E8
:1020500097FFFACF80E090EB0E940B10089581E883
:102060009AEC0E940B1083E89AEC0E940B100895E2
:1020700052988AB1806B8AB988ED90E80E940B1063
:1020800089E992E80E940B1080E496EA0E940B1006
:1020900087E496EC0E940B1080EA94E90E940B10F2
:1020A0008CEA92EC0E940B1081E89AEC0E940B10D3
:1020B00084ED9EEC0E940B1083E894EC0E940B10C0
:1020C00080E598E90E940B1087E19CEC0E940B10C0
:1020D00080E090EE0E940B1080E098EC0E940B10C4
:1020E00080E490EC0E940B100E942F1008958CE267
:1020F00084B981E58CBD089580E184B980E48CBD0C
:102100008CB580688CBD789408958CB580688CBD42
:10211000789408958CB580688CBD08958CB58F77C0
:102120008CBD08958EBD0DB407FEFDCF08950DB48E
:1021300007FEFDCF8EB508958EB508958EBD0DB402
:1021400007FEFDCF8EB5089552988AB1806B8AB98B
:1021500008955F985C9840E020E030E097FF02C06F
:102160005D9A01C05D985F9A220F331F4E992160DE
:102170005F984F5F403119F0880F991FEFCF5C9A3D
:10218000C901089552988AB1806B8AB988ED90E8A8
:102190000E94A91089E392E80E94A91080E496EABF
:1021A0000E94A91087E496EC0E94A91080EA94E9A5
:1021B0000E94A9108CEA92EC0E94A91081E89AEC86
:1021C0000E94A91084ED9EEC0E94A91083E894EC73
:1021D0000E94A91080E598E90E94A91087E19CEC73
:1021E0000E94A91080E090EE0E94A91080E098EC77
:1021F0000E94A91080E490EC0E94A91008954A99C9
:10220000FECF90E0805098440E94A9100895F89461
:102210000C949717ABE0B0E0E0E1F1E10C943E17CD
:102220003C012B015A01FC0117821682838181FD3A
:1022300003C06FEF7FEFC6C19AE0892E1E0108949C
:10224000211C311CF3012381F20123FD859123FF21
:1022500081912F01882309F4B2C1853239F423FD1D
:10226000859123FF81912F01853229F490E0B301FC
:102270000E94FD12E7CF982FFF24EE249924FFE15E
:10228000FF15D0F09B3269F09C3228F4903259F05F
:10229000933291F40EC09D3249F0903369F441E0DD
:1022A00024C052E0F52A84E0F82A28C098E0F92AF0
:1022B00025C0E0E1FE2A22C0F7FC29C0892F805307
:1022C0008A3070F4F6FE05C0989C902C1124980E6C
:1022D00015C0E89CE02C1124E80EF0E2FF2A0EC0A5
:1022E0009E3229F4F6FC6BC140E4F42A07C09C3608
:1022F00019F450E8F52A02C0983649F4F20123FD9A
:10230000959123FF91912F01992309F0B8CF892F3F
:102310008554833018F08052833038F444E050E024
:10232000A40EB51E5FE359830FC0933631F0933787
:1023300079F0933509F056C020C0F501808189837A
:1023400042E050E0A40EB51E610101E010E012C0B1
:10235000F501C080D180F6FC03C06FEF7FEF02C0B3
:10236000692D70E042E050E0A40EB51EC6010E9447
:10237000F2128C015FE7F52214C0F501C080D18014
:10238000F6FC03C06FEF7FEF02C0692D70E042E002
:1023900050E0A40EB51EC6010E94E7128C0150E861
:1023A000F52AF3FE07C01AC080E290E0B3010E9454
:1023B000FD12EA948E2D90E008171907A8F30EC0BD
:1023C000F601F7FC8591F7FE81916F0190E0B30172
:1023D0000E94FD12E110EA94015010400115110510
:1023E00079F7EAC0943611F0993669F5F7FE08C01E
:1023F000F501208131814281538184E090E00AC05F
:10240000F501808191819C01442737FD4095542F2F
:1024100082E090E0A80EB91E9FE6F92257FF09C09E
:1024200050954095309521953F4F4F4F5F4FE0E8D5
:10243000FE2ACA01B901A1012AE030E00E94291355
:10244000D82ED21840C0953729F41F2D1F7E2AE0C0
:1024500030E01DC01F2D197F9F3661F0903720F4AA
:10246000983509F0ACC00FC0903739F0983709F0B3
:10247000A6C004C028E030E00AC0106114FD14605A
:1024800020E130E004C014FD166020E132E017FFC7
:1024900008C0F501608171818281938144E050E040
:1024A00008C0F50180819181BC0180E090E042E0AC
:1024B00050E0A40EB51EA1010E942913D82ED218F7
:1024C0008FE7F82EF122F6FE0BC05EEFF522D9144D
:1024D00038F4F4FE07C0F2FC05C08FEEF82202C00B
:1024E0001D2D01C0192DF4FE0DC0FE01ED0DF11DD5
:1024F0008081803319F499EEF92208C01F5FF2FE43
:1025000005C003C08F2D867809F01F5F0F2DF3FCE7
:1025100014C0F0FE0FC01E1510F09D2C0BC09D2C9A
:102520009E0C911A1E2D06C080E290E0B3010E941D
:10253000FD121F5F1E15C0F304C01E1510F4E11A32
:1025400001C0EE2404FF0FC080E390E0B3010E94BD
:10255000FD1202FF1DC001FD03C088E790E00EC020
:1025600088E590E00BC0802F867891F001FF02C0D3
:102570008BE201C080E2F7FC8DE290E0B3010E94A3
:10258000FD1206C080E390E0B3010E94FD129A9410
:10259000D914C0F3DA94F101ED0DF11D808190E0C2
:1025A000B3010E94FD12DD20A9F706C080E290E091
:1025B000B3010E94FD12EA94EE20C1F743CEF3016D
:1025C00066817781CB012B96E2E10C945A17FC01CE
:1025D0000590615070400110D8F7809590958E0F4E
:1025E0009F1F0895FC016150704001900110D8F7C1
:1025F000809590958E0F9F1F08950F931F93CF93F3
:10260000DF938C01EB018B8181FF1BC082FF0DC02A
:102610002E813F818C819D812817390764F4E881E0
:10262000F9810193F983E88306C0E885F985802F55
:102630000995892B31F48E819F8101969F838E832A
:1026400002C00FEF1FEFC801DF91CF911F910F91D3
:102650000895FA01AA27283051F1203181F1E89438
:102660006F936E7F6E5F7F4F8F4F9F4FAF4FB1E085
:102670003ED0B4E03CD0670F781F891F9A1FA11D80
:10268000680F791F8A1F911DA11D6A0F711D811D81
:10269000911DA11D20D009F468943F912AE0269F46
:1026A00011243019305D3193DEF6CF010895462FA5
:1026B0004770405D4193B3E00FD0C9F7F6CF462F86
:1026C0004F70405D4A3318F0495D31FD40524193EF
:1026D00002D0A9F7EACFB4E0A695979587957795AC
:1026E0006795BA95C9F700976105710508959B0133
:1026F000AC010A2E06945795479537952795BA95BC
:10270000C9F7620F731F841F951FA01D089504D081
:102710006894B11150C0089533D088F09F5790F05D
:10272000B92F9927B751A0F0D1F0660F771F881FF6
:10273000991F1AF0BA95C9F712C0B13081F03AD09A
:10274000B1E0089537C0672F782F8827B85F39F038
:10275000B93FCCF3869577956795B395D9F73EF455
:1027600090958095709561957F4F8F4F9F4F0895FD
:1027700057FD9058440F551F59F05F3F71F0479532
:10278000880F97FB991F61F09F3F79F08795089517
:10279000121613061406551FF2CF4695F1DF08C036
:1027A000161617061806991FF1CF86957105610553
:1027B00008940895E894BB2766277727CB0197F9FB
:1027C0000895A0E0B0E0E7EEF3E10C944E17FE01AF
:1027D0003596619171918091A3019091A401AF010F
:1027E0000E940A112096E2E00C946A17AEE0B0E075
:1027F000ECEFF3E10C944C170D891E898F89988DAD
:1028000097FF02C080E090E801979E838D831A8332
:10281000098386E08C839E01255E3F4FCE010196A1
:10282000698D7A8DA9010E940A114D815E8157FD43
:102830000AC02F813885421753070CF49A01020F02
:10284000131FF80110822E96E4E00C94681750587C
:10285000BB27AA270ED00EC2FFD130F004D220F041
:1028600031F49F3F11F41EF4BEC10EF4E095E7FB76
:10287000B4C1E92F7DDF80F3BA17620773078407BD
:10288000950718F071F49EF595CF0EF4E0950B2E98
:10289000BA2FA02D0B01B90190010C01CA01A001B2
:1028A0001124FF27591B99F0593F50F4503E68F10D
:1028B0001A16F040A22F232F342F4427585FF3CF4E
:1028C000469537952795A795F0405395C9F77EF41F
:1028D0001F16BA0B620B730B840BBAF09150A1F068
:1028E000FF0FBB1F661F771F881FC2F70EC0BA0FEE
:1028F000621F731F841F48F4879577956795B79576
:10290000F7959E3F08F0B3CF9395880F08F099276D
:10291000EE0F9795879508959F939F77EEE38937FC
:102920009E0720F4E8E6F0E086D109C017D1905860
:10293000A2EA2AED3FE049EC5FE39BDF9BD10F90D9
:1029400007FC9058089588D158F080E891E009F488
:102950009EEF89D128F040E851E059F45EEF09C0BC
:1029600042C128CFE92FE07803DF68F3092E052A5A
:10297000C1F3261737074807590738F00E2E07F816
:10298000E02569F0E025E0640AC0EF6307F80094F1
:1029900007FADB01B9019D01DC01CA01AD01EF932A
:1029A00047D068D10AD05F91552331F02BED3FE03D
:1029B00049E450FD49EC4CCF0895DF93DD27B92F52
:1029C000BF7740E85FE31616170648075B0710F469
:1029D000D92F61D19F938F937F936F9308D2ECE7A8
:1029E000F0E004D147D12F913F914F915F9166D193
:1029F000DD2349F09058A2EA2AED3FE049EC5FE37D
:102A0000D0785D2736DFDF9135C1C3D008F481E08F
:102A100008950CD02FC127D140F01ED130F021F401
:102A20005F3F19F0DAC05111C6CEDDC0A1DE98F3C8
:102A30009923C9F35523B1F3951B550BBB27AA273F
:102A400062177307840738F09F5F5F4F220F331FB1
:102A5000441FAA1FA9F333D00E2E3AF0E0E830D07D
:102A600091505040E695001CCAF729D0FE2F27D080
:102A7000660F771F881FBB1F261737074807AB074E
:102A8000B0E809F0BB0B802DBF01FF2793585F4FC3
:102A90002AF09E3F510568F0A0C08DCE5F3FECF359
:102AA000983EDCF3869577956795B795F7959F5F88
:102AB000C9F7880F911D9695879597F90895E1E0DC
:102AC000660F771F881FBB1F621773078407BA073B
:102AD00020F0621B730B840BBA0BEE1F88F7E09596
:102AE0000895E89409C097FB3EF490958095709501
:102AF00061957F4F8F4F9F4F9923A9F0F92F96E94A
:102B0000BB279395F695879577956795B795F111BE
:102B1000F8CFFAF4BB0F11F460FF1BC06F5F7F4F5B
:102B20008F4F9F4F16C0882311F096E911C077236D
:102B300021F09EE8872F762F05C0662371F096E876
:102B4000862F70E060E02AF09A95660F771F881F45
:102B5000DAF7880F9695879597F90895DF93CF93C5
:102B60001F930F938B01EC01E9EAF0E03FD082D094
:102B70009801AE018B01EC0160E070E080E89FE31A
:102B800066DEF7D09801AE010F911F91CF91DF91D2
:102B900095C0990F0008550FAA0BE0E8FEEF161636
:102BA0001706E807F907C0F012161306E407F50741
:102BB00098F0621B730B840B950B39F40A2661F0B5
:102BC000232B242B252B21F408950A2609F4A14058
:102BD000A6958FEF811D811D089597F99F6780E865
:102BE00070E060E008959FEF80EC0895DF93CF934D
:102BF0001F930F93FF92EF92DF927B018C016894F9
:102C000005C0DA2EEF015AD0FE01E894A591259176
:102C1000359145915591AEF3EF012BDEFE01970101
:102C2000A801DA9479F7DF90EF90FF900F911F9150
:102C3000CF91DF9108959F938F937F936F93FF932D
:102C4000EF939B01AC012ED0EF91FF91CFDF2F913D
:102C50003F914F915F9126C000240A9416161706E3
:102C600018060906089500240A941216130614067D
:102C700005060895092E0394000C11F4882352F0E0
:102C8000BB0F40F4BF2B11F460FF04C06F5F7F4F98
:102C90008F4F9F4F08959B01AC0160E070E080E88A
:102CA0009FE3B7CE0BD0E6CFD7DF28F0DCDF18F0FC
:102CB000952309F092CF97CF11247DCD59DDA0F354
:102CC000959FD1F3950F50E0551F629FF001729FC1
:102CD000BB27F00DB11D639FAA27F00DB11DAA1FE0
:102CE000649F6627B00DA11D661F829F2227B00D2D
:102CF000A11D621F739FB00DA11D621F839FA00DB8
:102D0000611D221F749F3327A00D611D231F849F07
:102D1000600D211D822F762F6A2F11249F5750405E
:102D20008AF0E1F088234AF0EE0FFF1FBB1F661FF9
:102D3000771F881F91505040A9F79E3F510570F0B2
:102D40004CCF39CD5F3FECF3983EDCF38695779519
:102D50006795B795F795E7959F5FC1F7FE2B880FAD
:102D6000911D9695879597F9089511F40EF43BCF30
:102D700041C006DDD0F39923D9F3CEF39F57550B0D
:102D800087FF46D00024A0E640EA9001805856957F
:102D9000979528F4805C660F771F881F20F0261710
:102DA0003707480730F4621B730B840B2029312945
:102DB0004A2BA69517940794202531254A2758F7C2
:102DC000660F771F881F20F026173707480730F453
:102DD000620B730B840B200D311D411DA09581F7F3
:102DE000B901842F9158880F9695879508959B0176
:102DF000AC0158CF9F3F31F0915020F487957795E3
:102E00006795B795880F911D9695879597F90895C1
:102E100091505040660F771F881FD2F70895AA1B64
:102E2000BB1B51E107C0AA1FBB1FA617B70710F0B5
:102E3000A61BB70B881F991F5A95A9F780959095E7
:102E4000BC01CD01089597FB092E05260ED057FD34
:102E500004D04BD00AD0001C38F4509540953095E2
:102E600021953F4F4F4F5F4F0895F6F7909580950E
:102E7000709561957F4F8F4F9F4F08952F923F928E
:102E80004F925F926F927F928F929F92AF92BF927A
:102E9000CF92DF92EF92FF920F931F93CF93DF9326
:102EA000CDB7DEB7CA1BDB0B0FB6F894DEBF0FBE83
:102EB000CDBF09942A88398848885F846E847D84D0
:102EC0008C849B84AA84B984C884DF80EE80FD80D2
:102ED0000C811B81AA81B981CE0FD11D0FB6F89448
:102EE000DEBF0FBECDBFED010895A1E21A2EAA1BD1
:102EF000BB1BFD010DC0AA1FBB1FEE1FFF1FA217AA
:102F0000B307E407F50720F0A21BB30BE40BF50BA6
:102F1000661F771F881F991F1A9469F7609570952F
:102F2000809590959B01AC01BD01CF010895F89467
:022F3000FFCFD1
:102F320025642C2025642C2025640A000000000151
:102F4200000000000000A1010000000000020000DB
:102F520000008D0100000000756E65787065637475
:102F620065642049443B2072656365697665642027
:0E2F7200256400000000CDCCCC3D0000803F67
:00000001FF
