:100000000C9469000C9486000C9486000C94860075
:100010000C9486000C9486000C9486000C94860048
:100020000C9486000C9486000C9486000C94860038
:100030000C9486000C9486000C9421010C9486008C
:100040000C9486000C94F0000C9486000C948600AE
:100050000C9486000C9486000C9486000C94860008
:100060000C9486000C948600036EDB363D9A9999B9
:10007000993DABAAAA2A3E000000803F084AD73B20
:100080003BCE016E84BCBFFDC12F3D6C74319ABD67
:1000900056833DDA3D00C77F11BED9E4BB4C3E918B
:1000A0006BAAAABE000000803F072C7AA5BA6CC5D7
:1000B00090DA3B9365FC8BBC53F810FD3C56928361
:1000C0004DBD879D3AB63DCBC9BF5BBE73DA0FC944
:1000D0003F0011241FBECFEFD8E0DEBFCDBF12E03E
:1000E000A0E0B1E0E0ECF8E302C005900D92AA3484
:1000F000B107D9F712E0AAE4B2E001C01D92A33A19
:10010000B107E1F70E94A8000C945E1C0C9400005B
:10011000CF93DF93FC0184819581A681B781EB01A8
:1001200088839983AA83BB8380859185A285B385C3
:100130008C839D83AE83BF8384859585A685B78593
:10014000FB0180879187A287B387DF91CF910895C4
:1001500082E084BD93E095BD80936E0089EF87BDFA
:100160000E94EA040E9410020E9454017894809137
:100170004A0290914B0280E892E00E94D002809166
:10018000840290918502A0918602B09187028093AB
:10019000740290937502A0937602B09377028091D7
:1001A000880290918902A0918A02B0918B0280937B
:1001B000780290937902A0937A02B0937B028091A7
:1001C0008C0290918D02A0918E02B0918F0280934B
:1001D0007C0290937D02A0937E02B0937F02C7CFF2
:1001E0001F920F920FB60F9211242F933F934F93AC
:1001F0005F936F937F938F939F93AF93BF93EF938F
:10020000FF930E9447108A3539F0833C49F480E718
:1002100092E00E94700104C084E792E00E948A018B
:10022000FF91EF91BF91AF919F918F917F916F91CE
:100230005F914F913F912F910F900FBE0F901F90A4
:1002400018951F920F920FB60F9211248F939F93C0
:1002500080914A0290914B02019690934B028093B9
:100260004A029F918F910F900FBE0F901F9018958B
:100270001F93182F8A3019F48DE00E943801809165
:10028000C00085FFFCCF1093C600212F332727FD28
:100290003095C9011F9108958091C00087FFFCCF60
:1002A0008091C60090E008951092C50080E180938F
:1002B000C40088E18093C10086E08093C2008EE094
:1002C00091E09093A00280939F029093A20280936A
:1002D000A10280E091E090939E0280939D02089598
:1002E0000F931F938C010E9439100E944210F80155
:1002F00080830E944210F80181830E944210F8011D
:1003000082830E944210F80183830E9435101F915E
:100310000F9108950F931F938C010E943910F801DB
:1003200080810E943D10F80181810E943D10F801FA
:1003300082810E943D10F80183810E943D10F801E6
:1003400084810E943D10F80185810E943D10F801D2
:1003500086810E943D10F80187810E943D10F801BE
:1003600080850E943D10F80181850E943D10F801B2
:1003700082850E943D10F80183850E943D100E94F5
:1003800035101F910F9108950F931F938C0183ECEB
:100390000E943D10F80180810E943D10F80181818A
:1003A0000E943D10F80182810E943D10F801838176
:1003B0000E943D101F910F910895FF920F931F937C
:1003C000CF93DF938C018AE50E943D10C0E0D0E01E
:1003D00080E00E944910F801EC0FFD1F80832196F8
:1003E000C430D105A9F7E801FF2480E00E9449103C
:1003F0008C83F394219684E0F816B9F7FF2480E00B
:100400000E944910F8018087F3940F5F1F4FF4E0BA
:10041000FF16A9F7DF91CF911F910F91FF900895DB
:100420000E94271008950E9422100895982F84EAB0
:100430008093BC008091BC0087FFFCCF990F909304
:10044000BB0084E88093BC008091BC0087FFFCCF98
:100450006093BB0084E88093BC008091BC0087FF60
:10046000FCCF4093BB0084E88093BC008091BC002B
:1004700087FFFCCF84E98093BC0080E00895982F2B
:10048000FA0184EA8093BC008091BC0087FFFCCF16
:10049000892F880F8093BB0084E88093BC008091F3
:1004A000BC0087FFFCCF6093BB0084E88093BC0056
:1004B0008091BC0087FFFCCF84EA8093BC008091D0
:1004C000BC0087FFFCCF990F91609093BB0084E83C
:1004D0008093BC008091BC0087FFFCCF84E88093B0
:1004E000BC008091BC0087FFFCCF8091BB00808363
:1004F00084E98093BC0080E00895982FF90184EA94
:100500008093BC008091BC0087FFFCCF892F880FAF
:100510008093BB0084E88093BC008091BC0087FF7F
:10052000FCCF6093BB0084E88093BC008091BC004A
:1005300087FFFCCF84EA8093BC008091BC0087FFDA
:10054000FCCF990F91609093BB0084E88093BC002E
:100550008091BC0087FFFCCF20E030E050E04150AC
:10056000504094EC0BC09093BC008091BC0087FF7E
:10057000FCCF8091BB0081932F5F3F4F241735073D
:1005800094F384E88093BC008091BC0087FFFCCF8B
:100590008091BB00808384E98093BC0080E0089553
:1005A0002F923F924F925F926F927F928F929F9283
:1005B000AF92BF92CF92DF92EF92FF920F931F9371
:1005C000DF93CF93CDB7DEB7A0970FB6F894DEBF19
:1005D0000FBECDBF9E8B8D8B88E663E446E06E0137
:1005E0000894C11CD11C96010E947D02998180E073
:1005F000EA80FF24E82AF92AF0929102E092900220
:100600009B8180E02C803324282A392A309293025F
:10061000209292023D8120E06E8170E0622B732B6C
:100620007093950260939402882777FD8095982FA8
:100630000E94321420E030E043E852E40E94561356
:100640006F8B788F898F9A8F88E66BE346E09601EF
:100650000E947D02998180E0AA80BB24A82AB92A41
:10066000B0929702A09296029B8180E06C807724E2
:10067000682A792A70929902609298029D8180E09E
:100680002E81022F10E0082B192B1C8B0B8B109343
:100690009B0200939A022DB73EB7285030400FB608
:1006A000F8943EBF0FBE2DBF4DB75EB74F5F5F4F93
:1006B0005C8F4B8F0027F7FC0095102FC801B70106
:1006C0000E94321420E030E043E852E40E945613C6
:1006D00023EC35EF48E450E40E945C1220E030E067
:1006E00044E353E40E9456136D8F7E8F8F8F98A33F
:1006F000442437FC4094542CC201B1010E943214AE
:1007000020E030E043E852E40E94561323EC35EF3A
:1007100048E450E40E945C1220E030E044E353E4FB
:100720000E9456131B012C016F89788D898D9A8D3B
:1007300023EC35EF48E450E40E945C1220E030E006
:1007400044E353E40E9456137B018C01CC24B7FC94
:10075000C094DC2CC601B5010E94321420E030E0C8
:1007600040E859E30E945C125B016C01882477FC2D
:100770008094982CC401B3010E94321420E030E030
:1007800040E859E30E945C12AB8DBC8D6D937D9364
:100790008D939C931397EB89FC89BF01882777FD84
:1007A0008095982F0E94321420E030E040E859E311
:1007B0000E945C12AB8DBC8D14966D937D938D93CE
:1007C0009C9317976D8D7E8D8F8D98A1A2019101BD
:1007D0000E94DC0860913E0170913F0180914001D0
:1007E00090914101209168023091690240916A0222
:1007F00050916B02A0906402B0906502C0906602B6
:10080000D090670260906C0270906D0280906E02D2
:1008100090906F02EDB7FEB738960FB6F894FEBF12
:100820000FBEEDBF0E945C127B018C01C601B501B9
:10083000A40193010E945C129B01AC01C801B701A5
:100840000E94FE119B01AC010E942F120E943E17D4
:10085000AD89BE8914966D937D938D939C93179764
:1008600060913E0170913F01809140019091410162
:1008700020916402309165024091660250916702B6
:10088000A0906802B0906902C0906A02D0906B029A
:1008900060906C0270906D0280906E0290906F027A
:1008A000209064023090650240906602509067028A
:1008B000E0906402F0906502009166021091670278
:1008C000EF86F88A098B1A8BE0906802F090690233
:1008D00000916A0210916B02EB86FC860D871E87E1
:1008E000E0906802F090690200916A0210916B0238
:1008F000EF82F88609871A870E945C127B018C01BF
:10090000C601B501A40193010E945C129B01AC01D8
:10091000C801B7010E942F129B01AC010E942F1247
:100920005B016C01C201B1012F85388949895A895F
:100930000E945C127B018C016B857C858D859E8578
:100940002F81388549855A850E945C129B01AC0134
:10095000C801B7010E942F1220E030E040E050ECC7
:100960000E945C1220E030E040E85FE30E942F121A
:100970009B01AC01C601B5010E9464179058AD8976
:10098000BE8918966D937D938D939C931B97EF88EA
:10099000F88C098D1A8D1C96ED92FD920D931C9387
:1009A0001F97A0960FB6F894DEBF0FBECDBFCF91B4
:1009B000DF911F910F91FF90EF90DF90CF90BF904C
:1009C000AF909F908F907F906F905F904F903F90EF
:1009D0002F9008952F923F924F925F926F927F9245
:1009E0008F929F92AF92BF92CF92DF92EF92FF923F
:1009F0000F931F93DF93CF93CDB7DEB7C455D0408D
:100A00000FB6F894DEBF0FBECDBF1092B9008CE0D8
:100A10008093B80084E08093BC0088E665E7AE016F
:100A20004E5F5F4F0E943F0280939C022A812337D2
:100A300049F14DB75EB7485050400FB6F8945EBFCD
:100A40000FBE4DBFEDB7FEB73196CE014396ADB7A1
:100A5000BEB712969C938E93119780E290E0938399
:100A600082838CE191E095838483268317820E94A0
:100A70000D172DB73EB7285F3F4F0FB6F8943EBF16
:100A80000FBE2DBF88E66BE640E80E94160288EE96
:100A900093E020E931E0F9013197F1F70197D9F7B7
:100AA00088E66BE640E80E94160288EE93E020E9B3
:100AB00031E0F9013197F1F70197D9F788E66BE654
:100AC00041E00E94160288E66CE640E00E941602B1
:100AD00080ED97E020E931E0F9013197F1F70197D6
:100AE000D9F788E668E340E00E94160288E663E2F0
:100AF00040E00E94160288E66BE640E00E94160283
:100B000088E664E240E00E94160288E66AE640E079
:100B10000E94160288E66AE64CE00E94160280E611
:100B20009AEE0197F1F788E66AE141E00E94160229
:100B300088E669E140E00E94160288E66BE140E049
:100B40000E94160288E66CE140E00E94160288E6E8
:100B50006AE640E40E94160288E663E248E70E94E3
:100B6000160280E991E020E931E0F9013197F1F7CF
:100B70000197D9F788E663E240E00E9416028E01F1
:100B8000095F1F4F88E662E742E098010E947D02FC
:100B90009F8180E0288530E0822B932B6CE070E011
:100BA0000E94851662966FAF629763967FAF6397D8
:100BB00061961CAE1DAE1EAE1FAE61972D961CAE8B
:100BC0001DAE1EAE1FAE2D9744245524320129962A
:100BD0001CAE1DAE1EAE1FAE299725961CAE1DAED7
:100BE0001EAE1FAE259721961CAE1DAE1EAE1FAECB
:100BF00021971CAE1BAE64960FAF649765961FAF2E
:100C00006597A1C088E664E74CE064962FAD6497D1
:100C100065963FAD65970E947D023F8022248885BE
:100C200090E082299329AA2797FDA095BA2F619673
:100C30002CAD3DAD4EAD5FAD6197280F391F4A1FFA
:100C40005B1F61962CAF3DAF4EAF5FAF619799844C
:100C500088248A8590E088299929AA2797FDA0955C
:100C6000BA2F2D962CAD3DAD4EAD5FAD2D97280F13
:100C7000391F4A1F5B1F2D962CAF3DAF4EAF5FAFA4
:100C80002D97BB84AA248C8590E08A299B29AA27CA
:100C900097FDA095BA2F480E591E6A1E7B1EDD8453
:100CA000CC248E8590E08C299D29AA2797FDA095BC
:100CB000BA2F29962CAD3DAD4EAD5FAD2997280FCB
:100CC000391F4A1F5B1F29962CAF3DAF4EAF5FAF58
:100CD0002997FF84EE24888990E08E299F29AA27EE
:100CE00097FDA095BA2F25962CAD3DAD4EAD5FADCD
:100CF0002597280F391F4A1F5B1F25962CAF3DAF44
:100D00004EAF5FAF2597198900E08A8990E0802B6C
:100D1000912BAA2797FDA095BA2F21962CAD3DAD1A
:100D20004EAD5FAD2197280F391F4A1F5B1F2196DB
:100D30002CAF3DAF4EAF5FAF21974BAD5CAD4F5F7A
:100D40005F4F5CAF4BAF8BAD9CAD6396AEADBFADAF
:100D500063978A179B0708F455CF5D01CC24DD24E7
:100D6000C301B201A60195010E949916B901CA01F9
:100D700016161706180619063CF49B01AC01205004
:100D800030414040504006C09B01AC012050304FE4
:100D90004F4F5F4F2BAB3CAB4DAB5EAB29966CAD71
:100DA0007DAD8EAD9FAD2997A60195010E94991644
:100DB000CA01B90124E030E040E050E00E949916F9
:100DC00050954095309521953F4F4F4F5F4FE32E03
:100DD000F42E052F112707FD1A95EF8228872596F7
:100DE0006CAD7DAD8EAD9FAD2597A60195010E949E
:100DF0009916CA01B90124E030E040E050E00E94B9
:100E0000991650954095309521953F4F4F4F5F4F24
:100E1000BB2757FDBA95A52F942F832F89872A8743
:100E200021966CAD7DAD8EAD9FAD2197A60195014C
:100E30000E949916CA01B90124E030E040E050E078
:100E40000E94991650954095309521953F4F4F4FF0
:100E50005F4FBB2757FDBA95A52F942F832F8B8704
:100E60002C8788E663E14E2D0E94160288E664E135
:100E700048850E94160288E665E149850E941602AF
:100E800088E666E14A850E94160288E667E14B859E
:100E90000E94160288E668E14C850E9416028E01C7
:100EA000095F1F4F88E667E742E098010E947D02D4
:100EB0009F8180E0288530E0822B932B3C018824A1
:100EC00077FC8094982C88E66AE742E098010E94BB
:100ED0007D029F8180E0288530E0822B932B9C014E
:100EE000442737FD4095542F2FAB38AF49AF5AAF49
:100EF00088E66DE742E098010E947D029F8180E0D4
:100F0000288530E0822B932B1C01442437FC40942D
:100F1000542CDE011496E7E3F1E083E001900D929A
:100F20008150E1F760FE02C081E08C833FA930FF71
:100F300002C081E08D8320FE02C081E08E83619635
:100F40006CAD7DAD8EAD9FAD6197A60195010E9400
:100F50009916CA01B90128E030E040E050E00E9453
:100F60009916621A730A840A950A2D966CAD7DADA6
:100F70008EAD9FAD2D97A60195010E949916CA01CD
:100F8000B90128E030E040E050E00E949916EFA857
:100F9000F8AC09AD1AADE21AF30A040B150B6BA9F4
:100FA0007CA98DA99EA928E030E040E050E00E9495
:100FB0009916D201C101821B930BA40BB50B9C01A6
:100FC000AD01DD2497FCDA94C92CB82CA72CAF8294
:100FD0008C8186298887BB2717FDBA95A12F902F72
:100FE0008F2D89878D818E298A87BB2757FDBA95DA
:100FF000A52F942F832F8B878E81822B8C8788E659
:1010000067E74A2D0E94160288E668E748850E9435
:10101000160288E66AE749850E94160288E66BE7B1
:101020004A850E94160288E66DE74B850E941602EB
:1010300088E66EE74C850E94160288E66BE640E083
:101040000E94160288EE93E020E931E0F901319721
:10105000F1F70197D9F788E66BE641E00E941602A6
:1010600080ED97E020E931E0F9013197F1F7019740
:10107000D9F788E66AE142E00E94160288E669E153
:1010800043E00E94160288E66DE1AE014F5F5F4FBC
:101090000E943F024981407F498388E66DE10E94BA
:1010A000160288E66BE1AE014E5F5F4F0E943F0281
:1010B0004A81477E48604A8388E66BE10E941602B7
:1010C00088E66CE1AE014D5F5F4F0E943F024B81AD
:1010D000477E40614B8388E66CE10E941602CC5A41
:1010E000DF4F0FB6F894DEBF0FBECDBFCF91DF91BB
:1010F0001F910F91FF90EF90DF90CF90BF90AF9036
:101100009F908F907F906F905F904F903F902F9027
:101110000895EF92FF920F931F93DF93CF93CDB774
:10112000DEB728970FB6F894DEBF0FBECDBF698338
:101130007A838B839C83E980FA800B811C811595CF
:101140000795F794E7942FED39E547E35FE52E190E
:101150003F09400B510B2D833E834F835887ED8011
:10116000FE800F81188520E030E040E05FE30E94C0
:101170005C12A80197010E945C12A80197010E94CD
:101180005C129B01AC0160E070E080EC9FE30E9488
:10119000FE119B01AC01C801B7010E945C122896A8
:1011A0000FB6F894DEBF0FBECDBFCF91DF911F9178
:1011B0000F91FF90EF9008952F923F924F925F9280
:1011C0006F927F928F929F92AF92BF92CF92DF9257
:1011D000EF92FF920F931F93DF93CF93CDB7DEB7BC
:1011E000C856D0400FB6F894DEBF0FBECDBF69A37E
:1011F0007AA38BA39CA32DA33EA34FA358A7A9A674
:10120000BAA6CBA6DCA660916402709165028091BB
:101210006602909167026090680270906902809007
:101220006A0290906B0220906C0230906D024090A8
:101230006E0250906F02905829A13AA14BA15CA177
:101240000E945C125B016C01C401B3012DA13EA19F
:101250004FA158A50E945C129B01AC01C601B501CB
:101260000E94FE115B016C01C201B101A80197014E
:101270000E945C129B01AC01C601B5010E94FE11E7
:1012800020E030E040E05FE30E945C126D877E87E3
:101290008F87988B60913E0170913F018091400152
:1012A00090914101609068027090690280906A029A
:1012B00090906B0220906C0230906D0240906E0214
:1012C00050906F0229A13AA14BA15CA10E945C122F
:1012D0005B016C01C401B301A80197010E945C127B
:1012E0009B01AC01C601B5010E942F125B016C018C
:1012F000C201B1012DA13EA14FA158A50E945C12CF
:101300009B01AC01C601B5010E94FE1120E030E056
:1013100040E05FE30E945C1269877A878B879C8735
:1013200060913E0170913F01809140019091410197
:1013300060906402709065028090660290906702EF
:1013400020906C0230906D0240906E0250906F02BF
:101350002DA13EA14FA158A50E945C125B016C011A
:10136000C401B301A80197010E945C129B01AC016A
:10137000C601B5010E94FE115B016C01C201B10101
:1013800029A13AA14BA15CA10E945C129B01AC0176
:10139000C601B5010E942F1220E030E040E05FE37B
:1013A0000E945C126D837E838F83988760913E01DB
:1013B00070913F018091400190914101A0906402A1
:1013C000B0906502C0906602D0906702609068029B
:1013D0007090690280906A0290906B02A801970158
:1013E0000E945C127B018C01C601B5012DA13EA1BA
:1013F0004FA158A50E945C129B01AC01C801B70126
:101400000E942F127B018C01C401B30129A13AA1D2
:101410004BA15CA10E945C129B01AC01C801B70109
:101420000E94FE1120E030E040E05FE30E945C1289
:1014300069837A838B839C8369A57AA58BA59CA5F8
:1014400020E030E040E050E00E940214882309F5DB
:10145000C358DF4F688179818A819B81CD57D04005
:1014600020E030E040E050E00E940214882389F43C
:10147000CF57DF4F688179818A819B81C158D040E5
:1014800020E030E040E050E00E940214882309F49C
:10149000FCC369A57AA58BA59CA59B01AC010E9404
:1014A0005C127B018C01C358DF4F688179818A818E
:1014B0009B81CD57D0409B01AC010E945C129B01E7
:1014C000AC01C801B7010E942F127B018C01CF57DC
:1014D000DF4F688179818A819B81C158D0409B010F
:1014E000AC010E945C129B01AC01C801B7010E94D3
:1014F0002F120E9489087B018C0169A57AA58BA512
:101500009CA5A80197010E945C126DA77EA78FA7DA
:1015100098ABC358DF4F688179818A819B81CD5711
:10152000D040A80197010E945C1269AB7AAB8BABEB
:101530009CABCF57DF4F688179818A819B81C158ED
:10154000D040A80197010E945C126DAB7EAB8FABBF
:1015500098AF20913E0130913F0140914001509160
:101560004101CA01B9010E942F1269AF7AAF8BAF56
:101570009CAF2091640230916502409166025091C7
:101580006702CA01B9010E942F1221966CAF7DAF8C
:101590008EAF9FAF219720916802309169024091F0
:1015A0006A0250916B02CA01B9010E942F1225965E
:1015B0006CAF7DAF8EAF9FAF259720916C023091BD
:1015C0006D0240916E0250916F02CA01B9010E94F2
:1015D0002F1229966CAF7DAF8EAF9FAF2997609188
:1015E0003E0170913F01809140019091410120E0C6
:1015F00030E040E850E40E945C125B016C016091B5
:10160000640270916502809166029091670220E009
:1016100030E040E850E40E945C123B014C016091D4
:1016200068027091690280916A0290916B0220E0D9
:1016300030E040E850E40E945C122D966CAF7DAF24
:101640008EAF9FAF2D97609164027091650280917B
:1016500066029091670220E030E040E051E40E9491
:101660005C1261966CAF7DAF8EAF9FAF619760915A
:1016700068027091690280916A0290916B0220E089
:1016800030E040E051E40E945C1265966CAF7DAFA3
:101690008EAF9FAF659720903E0130903F01409004
:1016A000400150904101E0903E01F0903F010091D7
:1016B000400110914101ED8EFE8E0F8F18A36091B5
:1016C0006402709165028091660290916702209198
:1016D00064023091650240916602509167020E9457
:1016E0005C1269966CAF7DAF8EAF9FAF69976091CA
:1016F00068027091690280916A0290916B02209158
:1017000068023091690240916A0250916B020E9416
:101710005C126D966CAF7DAF8EAF9FAF6D97609191
:101720006C0270916D0280916E0290916F02209117
:101730006C0230916D0240916E0250916F020E94D6
:101740005C12A1966CAF7DAF8EAF9FAFA197C60123
:10175000B5016D962CAD3DAD4EAD5FAD6D970E9460
:101760005C127B018C0125966CAD7DAD8EAD9FAD7D
:1017700025972DA53EA54FA558A90E945C129B0157
:10178000AC01C801B7010E942F127B018C01C60178
:10179000B50169962CAD3DAD4EAD5FAD69970E9428
:1017A0005C129B01AC01C801B7010E942F127B01A2
:1017B0008C0121966CAD7DAD8EAD9FAD219729A991
:1017C0003AA94BA95CA90E945C129B01AC01C8011B
:1017D000B7010E94FE11A5966CAF7DAF8EAF9FAF93
:1017E000A597C201B1012D8D3E8D4F8D58A10E944C
:1017F0005C1220E030E040E850E40E945C121B01E3
:101800002C01A0906402B0906502C0906602D09056
:101810006702C401B301A1962CAD3DAD4EAD5FADE5
:10182000A1970E945C127B018C0129966CAD7DAD65
:101830008EAD9FAD29972DA53EA54FA558A90E9415
:101840005C129B01AC01C801B7010E94FE117B0133
:101850008C01C201B101A60195010E945C129B019D
:10186000AC01C801B7010E942F127B018C0169AD48
:101870007AAD8BAD9CAD29A93AA94BA95CA90E9470
:101880005C129B01AC01C801B7010E94FE11A401CA
:1018900093010E94FE117B018C0161966CAD7DADC0
:1018A0008EAD9FAD619769962CAD3DAD4EAD5FADF0
:1018B00069970E945C129B01AC01C801B7010E94AC
:1018C0002F127B018C0161966CAD7DAD8EAD9FAD0D
:1018D00061976D962CAD3DAD4EAD5FAD6D970E949D
:1018E0005C129B01AC01C801B7010E942F127B0161
:1018F0008C01C401B3012DA93EA94FA958AD0E9486
:101900005C129B01AC01C801B7010E942F12A9967D
:101910006CAF7DAF8EAF9FAFA997209168023091D9
:10192000690240916A0250916B02C201B1010E94AA
:101930005C127B018C0169AD7AAD8BAD9CAD2DA5A0
:101940003EA54FA558A90E945C129B01AC01C8019D
:10195000B7010E942F127B018C012D966CAD7DADDD
:101960008EAD9FAD2D97A1962CAD3DAD4EAD5FAD2B
:10197000A1970E945C129B01AC01C801B7010E94B3
:101980002F127B018C0129966CAD7DAD8EAD9FAD84
:10199000299729A93AA94BA95CA90E945C129B012D
:1019A000AC01C801B7010E94FE112D962CAD3DADD2
:1019B0004EAD5FAD2D970E94FE117B018C016596A7
:1019C0006CAD7DAD8EAD9FAD659769962CAD3DAD8F
:1019D0004EAD5FAD69970E945C129B01AC01C801DE
:1019E000B7010E942F127B018C0165966CAD7DAD15
:1019F0008EAD9FAD65976D962CAD3DAD4EAD5FAD97
:101A00006D970E945C129B01AC01C801B7010E9456
:101A10002F127B018C012D966CAD7DAD8EAD9FADEF
:101A20002D972DA93EA94FA958AD0E945C129B018C
:101A3000AC01C801B7010E942F121B012C01E090DC
:101A40006C02F0906D0200916E0210916F02A090F6
:101A50006C02B0906D02C0906E02D0906F026996D9
:101A60006CAD7DAD8EAD9FAD699720E030E040E874
:101A700050E40E945C12A80197010E945C127B0155
:101A80008C0121966CAD7DAD8EAD9FAD21972DA5BE
:101A90003EA54FA558A90E945C129B01AC01C8014C
:101AA000B7010E94FE117B018C016D966CAD7DAD7E
:101AB0008EAD9FAD6D9720E030E040E850E40E948D
:101AC0005C12A60195010E945C129B01AC01C80149
:101AD000B7010E942F127B018C0125966CAD7DAD64
:101AE0008EAD9FAD259729A93AA94BA95CA90E9463
:101AF0005C129B01AC01C801B7010E94FE113B01C1
:101B00004C01A5966CAD7DAD8EAD9FADA5979B01AB
:101B1000AC010E945C127B018C01A9966CAD7DAD7D
:101B20008EAD9FADA9979B01AC010E945C129B01F9
:101B3000AC01C801B7010E942F127B018C01C201C8
:101B4000B101A20191010E945C129B01AC01C8018C
:101B5000B7010E942F127B018C01C401B301A401C3
:101B600093010E945C129B01AC01C801B7010E9465
:101B70002F120E9489085B016C01E0903A01F090FD
:101B80003B0100913C0110913D01A5966CAD7DADEE
:101B90008EAD9FADA597A60195010E945C129B0199
:101BA000AC01C801B7010E945C129B01AC016D85BC
:101BB0007E858F8598890E94FE116D877E878F872D
:101BC000988BE0903A01F0903B0100913C0110911C
:101BD0003D01A9966CAD7DAD8EAD9FADA997A601D7
:101BE00095010E945C129B01AC01C801B7010E94E3
:101BF0005C129B01AC0169857A858B859C850E946E
:101C0000FE1169877A878B879C87E0903A01F09074
:101C10003B0100913C0110913D01C201B101A601BF
:101C200095010E945C129B01AC01C801B7010E94A2
:101C30005C129B01AC016D817E818F8198850E9431
:101C4000FE116D837E838F839887E0903A01F09038
:101C50003B0100913C0110913D01C401B301A6017B
:101C600095010E945C129B01AC01C801B7010E9462
:101C70005C129B01AC0169817A818B819C810E94FD
:101C8000FE1169837A838B839C83E0903E01F09000
:101C90003F0100914001109141016D857E858F8546
:101CA00098892AE037ED43E25CE30E945C129B01D5
:101CB000AC01C801B7010E942F1260933E017093DE
:101CC0003F018093400190934101E0906402F090C5
:101CD0006502009166021091670269857A858B859D
:101CE0009C852AE037ED43E25CE30E945C129B0195
:101CF000AC01C801B7010E942F1260936402709377
:101D000065028093660290936702E0906802F0900B
:101D1000690200916A0210916B026D817E818F8150
:101D200098852AE037ED43E25CE30E945C129B0158
:101D3000AC01C801B7010E942F1260936802709332
:101D4000690280936A0290936B02E0906C02F090BB
:101D50006D0200916E0210916F0269817A818B8110
:101D60009C812AE037ED43E25CE30E945C129B0118
:101D7000AC01C801B7010E942F1260936C027093EE
:101D80006D0280936E0290936F0260913E0170919C
:101D90003F01809140019091410120913E0130919D
:101DA0003F014091400150914101A0906402B090E8
:101DB0006502C0906602D0906702609064027090E5
:101DC00065028090660290906702209068023090D1
:101DD000690240906A0250906B02E0906802F090B5
:101DE000690200916A0210916B02E98EFA8E0B8FE4
:101DF0001C8FE0906C02F0906D0200916E021091C9
:101E00006F02ED8AFE8A0F8B188FE0906C02F090C3
:101E10006D0200916E0210916F02E98AFA8A0B8BB3
:101E20001C8B0E945C127B018C01C601B501A401D0
:101E300093010E945C129B01AC01C801B7010E9492
:101E40002F127B018C01C201B101298D3A8D4B8D7E
:101E50005C8D0E945C129B01AC01C801B7010E941D
:101E60002F127B018C016D897E898F89988D29893C
:101E70003A894B895C890E945C129B01AC01C801C4
:101E8000B7010E942F120E9489087B018C0160918A
:101E90003E0170913F018091400190914101A80164
:101EA00097010E945C1260933E0170933F01809302
:101EB00040019093410160916402709165028091AC
:101EC000660290916702A80197010E945C126093DC
:101ED000640270936502809366029093670260913A
:101EE00068027091690280916A0290916B02A80168
:101EF00097010E945C12609368027093690280935C
:101F00006A0290936B0260916C0270916D028091F5
:101F10006E0290916F02A80197010E945C1260937B
:101F20006C0270936D0280936E0290936F02C85999
:101F3000DF4F0FB6F894DEBF0FBECDBFCF91DF915C
:101F40001F910F91FF90EF90DF90CF90BF90AF90D7
:101F50009F908F907F906F905F904F903F902F90C9
:101F6000089552988AB1806B8AB908955F985C98F9
:101F700040E020E030E097FF02C05D9A01C05D982C
:101F80005F9A220F331F4E9921605F984F5F403157
:101F900019F0880F991FEFCF5C9AC901089580E06E
:101FA00090E00E94B60F97FFFACF80E090EB0E947E
:101FB000B60F089581E89AEC0E94B60F83E89AEC78
:101FC0000E94B60F089552988AB1806B8AB988ED45
:101FD00090E80E94B60F89E992E80E94B60F80E46B
:101FE00096EA0E94B60F87E496EC0E94B60F80EA4C
:101FF00094E90E94B60F8CEA92EC0E94B60F81E839
:102000009AEC0E94B60F84ED9EEC0E94B60F83E816
:1020100094EC0E94B60F80E598E90E94B60F87E124
:102020009CEC0E94B60F80E090EE0E94B60F80E01C
:1020300098EC0E94B60F80E490EC0E94B60F0E94CC
:10204000DA0F08958CE284B981E58CBD089580E1B2
:1020500084B980E48CBD8CB580688CBD789408957B
:102060008CB580688CBD789408958CB580688CBDE3
:1020700008958CB58F778CBD08958EBD0DB407FE85
:10208000FDCF08950DB407FEFDCF8EB508958EB532
:1020900008958EBD0DB407FEFDCF8EB508955298FC
:1020A0008AB1806B8AB908955F985C9840E020E01F
:1020B00030E097FF02C05D9A01C05D985F9A220FE1
:1020C000331F4E9921605F984F5F403119F0880FA0
:1020D000991FEFCF5C9AC901089552988AB1806B1D
:1020E0008AB988ED90E80E94541089E392E80E9432
:1020F000541080E496EA0E94541087E496EC0E9403
:10210000541080EA94E90E9454108CEA92EC0E94E8
:10211000541081E89AEC0E94541084ED9EEC0E94C9
:10212000541083E894EC0E94541080E598E90E94D2
:10213000541087E19CEC0E94541080E090EE0E94C5
:10214000541080E098EC0E94541080E490EC0E94BF
:10215000541008954A99FECF90E0805098440E9410
:1021600054100895A0E0B0E0E8EBF0E10C94D6162E
:10217000DC012B01FA019C91923008F439C1EB018A
:102180008881823008F433C1943069F4843009F0D6
:102190002FC111969C9111978981981709F428C134
:1021A000A2E4B1E025C1843009F421C18230A9F450
:1021B000923009F01DC19A01AD0188E0EA01099051
:1021C000AE01E90109929E018150C1F7E2018981C6
:1021D00011969C918923818308C1923009F407C12B
:1021E00012962D903C901397EB018A819B81149657
:1021F000AD90BD90CD90DC901797EC80FD800E8166
:102200001F819101281B390BB90137FF04C06627D4
:102210007727621B730B603271050CF061C01216D8
:1022200013066CF537014801062E04C09694879476
:10223000779467940A94D2F721E030E040E050E0D0
:1022400004C0220F331F441F551F6A95D2F7215037
:102250003040404050402E213F2140235123211542
:1022600031054105510521F021E030E040E050E02A
:1022700079018A01E628F728082919293CC0232B6F
:10228000D1F1260E371E35014601062E04C0969464
:102290008794779467940A94D2F721E030E040E085
:1022A00050E004C0220F331F441F551F6A95D2F718
:1022B00021503040404050402A213B214C215D219B
:1022C000211531054105510521F021E030E040E0C4
:1022D00050E059016A01A628B728C828D9280BC0A0
:1022E000821593052CF01C01AA24BB24650103C0B0
:1022F000EE24FF24870111969C91D20111968C91B6
:10230000981709F445C0992339F0A80197012A19B3
:102310003B094C095D0906C0A60195012E193F092C
:10232000400B510B57FD08C0118233822282248357
:102330003583468357831DC081E0818333822282A7
:1023400088279927DC01821B930BA40BB50B848390
:102350009583A683B7830DC0220F331F441F551FDB
:1023600024833583468357838281938101979383A6
:1023700082832481358146815781DA01C901019721
:10238000A109B1098F5F9F4FAF4FBF4328F30BC027
:10239000918333822282EA0CFB1C0C1D1D1DE482FA
:1023A000F5820683178383E080832481358146810B
:1023B000578157FF1AC0C901AA2797FDA095BA2FC8
:1023C00081709070A070B07056954795379527959D
:1023D000822B932BA42BB52B84839583A683B78361
:1023E00082819381019693838283DF0101C0D201B0
:1023F000CD01CDB7DEB7E2E10C94F216A0E2B0E079
:10240000E4E0F2E10C94E21669837A838B839C8387
:102410002D833E834F835887E9E0EE2EF12CEC0E9E
:10242000FD1ECE010196B7010E94B4158E010F5E0C
:102430001F4FCE010596B8010E94B4158A8991E01C
:1024400089278A8BC701B801AE01475E5F4F0E94A2
:10245000B2100E94DF14A096E6E00C94FE16A0E2F3
:10246000B0E0E5E3F2E10C94E21669837A838B83B2
:102470009C832D833E834F835887F9E0EF2EF12C08
:10248000EC0EFD1ECE010196B7010E94B4158E011F
:102490000F5E1F4FCE010596B8010E94B415C7010B
:1024A000B801AE01475E5F4F0E94B2100E94DF1478
:1024B000A096E6E00C94FE16A0E2B0E0E2E6F2E1BF
:1024C0000C94D61669837A838B839C832D833E83F9
:1024D0004F835887CE010196BE01675F7F4F0E94F0
:1024E000B415CE010596BE016F5E7F4F0E94B415F4
:1024F0009985923088F089898230C8F0943019F437
:10250000823051F404C0843029F4923081F482E4A2
:1025100091E0C6C0923049F420E09A858A899813E8
:1025200021E02A87CE010996BBC0823049F420E021
:102530009A858A89981321E02A8BCE014196B0C0F2
:102540002D843E844F8458886D887E888F88988C2F
:10255000EE24FF248701AA24BB24650140E050E05B
:1025600060E070E0E0E0F0E0C10181709070892BE4
:10257000E9F0E60CF71C081D191D9A01AB012A0DA4
:102580003B1D4C1D5D1D80E090E0A0E0B0E0E61436
:10259000F7040805190520F481E090E0A0E0B0E020
:1025A000BA01A901480F591F6A1F7B1FAA0CBB1C47
:1025B000CC1CDD1C97FE08C081E090E0A0E0B0E0FC
:1025C000A82AB92ACA2ADB2A3196E032F10549F055
:1025D000660C771C881C991C569447943794279452
:1025E000C3CFFA85EA892B893C898B859C85280F86
:1025F000391F2E5F3F4F17C0CA0181709070892B21
:1026000061F016950795F794E79480E090E0A0E0DC
:10261000B0E8E82AF92A0A2B1B2B7695679557957F
:1026200047952F5F3F4F77FDE7CF0CC0440F551FF5
:10263000661F771F17FD4160EE0CFF1C001F111F66
:1026400021503040403090E0590790E0690790E415
:10265000790760F32B8F3C8FDB01CA018F77907075
:10266000A070B07080349105A105B10561F447FDFB
:102670000AC0E114F1040105110529F0405C5F4F27
:102680006F4F7F4F40781A8EFE1711F081E08A8FCE
:102690004D8F5E8F6F8F78A383E0898FCE0149962F
:1026A0000E94DF14A096E2E10C94F216A8E1B0E0DB
:1026B000ECE5F3E10C94DE1669837A838B839C83CB
:1026C0002D833E834F835887B9E0EB2EF12CEC0E1F
:1026D000FD1ECE010196B7010E94B4158E010F5E5A
:1026E0001F4FCE010596B8010E94B41529852230EE
:1026F00008F47EC03989323010F4B8017CC08A8574
:102700009A8989278A87243011F0223031F42317DF
:1027100009F06EC062E471E06EC0343039F41D8699
:102720001E861F86188A1C861B8604C0323021F440
:1027300084E08987B7015FC02B853C858B899C89A4
:10274000281B390B3C872B87ED84FE840F85188965
:10275000AD88BE88CF88D88CEA14FB040C051D0513
:1027600040F4EE0CFF1C001F111F215030403C872D
:102770002B8720E030E040E050E080E090E0A0E0F7
:10278000B0E460E070E0EA14FB040C051D0540F0C5
:10279000282B392B4A2B5B2BEA18FB080C091D0947
:1027A000B695A79597958795EE0CFF1C001F111FF6
:1027B0006F5F7F4F6F31710531F7DA01C9018F7794
:1027C0009070A070B07080349105A105B10561F4DE
:1027D00027FD0AC0E114F1040105110529F0205C70
:1027E0003F4F4F4F5F4F20782D873E874F87588B45
:1027F000BE01675F7F4FCB010E94DF146896EAE05D
:102800000C94FA16A8E1B0E0E8E0F4E10C94E216CA
:1028100069837A838B839C832D833E834F83588780
:1028200089E0E82EF12CEC0EFD1ECE010196B701D9
:102830000E94B4158E010F5E1F4FCE010596B801A0
:102840000E94B4158985823040F08989823028F051
:10285000C701B8010E942C1601C081E06896E6E02D
:102860000C94FE16A8E0B0E0E8E3F4E10C94DF1667
:102870009B01AC0183E08983DA01C9018827B7FD98
:1028800083959927AA27BB27B82E21153105410525
:10289000510519F482E089833AC08823A9F02030D9
:1028A00080E0380780E0480780E8580729F460E0B6
:1028B00070E080E09FEC30C0EE24FF248701E21A34
:1028C000F30A040B150B02C079018A018EE1C82EB0
:1028D000D12CDC82CB82ED82FE820F831887C80167
:1028E000B7010E94901401971816190684F4082E57
:1028F00004C0EE0CFF1C001F111F0A94D2F7ED82DA
:10290000FE820F831887C81AD90ADC82CB82BA826A
:10291000CE0101960E94DF142896E9E00C94FB1684
:10292000EF92FF920F931F937B018C0180E0E816DA
:1029300080E0F80681E0080780E0180788F48FEF50
:10294000E816F1040105110531F028F088E090E067
:10295000A0E0B0E017C080E090E0A0E0B0E012C0DE
:1029600080E0E81680E0F80680E0080781E01807BC
:1029700028F088E190E0A0E0B0E004C080E190E0C1
:10298000A0E0B0E020E230E040E050E0281B390B4E
:102990004A0B5B0B04C016950795F794E7948A954C
:1029A000D2F7F701E65BFE4F8081281B3109410910
:1029B0005109C9011F910F91FF90EF900895DF9287
:1029C000EF92FF920F931F93FC01E480F580068144
:1029D0001781D1808081823048F480E090E0A0E1CE
:1029E000B0E0E82AF92A0A2B1B2BA5C0843009F491
:1029F0009FC0823021F4EE24FF24870105C0E1143A
:102A0000F1040105110519F4E0E0F0E096C06281DF
:102A100073819FEF623879070CF05BC022E83FEFCB
:102A2000261B370B2A3131052CF020E030E040E046
:102A300050E02AC0B801A701022E04C07695679520
:102A4000579547950A94D2F781E090E0A0E0B0E076
:102A500004C0880F991FAA1FBB1F2A95D2F70197A0
:102A6000A109B1098E219F21A023B1230097A105BF
:102A7000B10521F081E090E0A0E0B0E09A01AB0167
:102A8000282B392B4A2B5B2BDA01C9018F779070E9
:102A9000A070B07080349105A105B10539F427FF0D
:102AA00009C0205C3F4F4F4F5F4F04C0215C3F4F38
:102AB0004F4F5F4FE0E0F0E02030A0E03A07A0E0A9
:102AC0004A07A0E45A0710F0E1E0F0E079018A013A
:102AD00027C06038710564F5FB01E158FF4FD8014C
:102AE000C7018F779070A070B07080349105A105F8
:102AF000B10539F4E7FE0DC080E490E0A0E0B0E05D
:102B000004C08FE390E0A0E0B0E0E80EF91E0A1FD9
:102B10001B1F17FF05C016950795F794E79431968C
:102B200087E016950795F794E7948A95D1F705C045
:102B3000EE24FF248701EFEFF0E06E2F6795662704
:102B40006795902F9F77D794DD24D7948E2F869505
:102B5000492F462B582F5D29B701CA011F910F91AC
:102B6000FF90EF90DF900895FC01DB0140815181DF
:102B70002281622F6F7770E0221F2227221F93810C
:102B8000892F880F822B282F30E0991F9927991FB2
:102B900011969C93119721153105A9F54115510501
:102BA0006105710511F482E037C082E89FEF13964A
:102BB0009C938E9312979A01AB0167E0220F331F0B
:102BC000441F551F6A95D1F783E08C930DC0220FE7
:102BD000331F441F551F12968D919C911397019797
:102BE00013969C938E931297203080E0380780E0F4
:102BF000480780E4580758F314962D933D934D935E
:102C00005C93179708952F3F310579F441155105CD
:102C10006105710519F484E08C93089564FF03C085
:102C200081E08C9312C01C9210C02F573040139635
:102C30003C932E93129783E08C9387E0440F551FAB
:102C4000661F771F8A95D1F7706414964D935D9334
:102C50006D937C93179708951F93DC01FB019C9162
:102C6000923008F447C08081823008F443C0943029
:102C700051F411961C91843099F58181682F70E090
:102C8000611B71093FC0843021F0923031F48230F1
:102C9000B9F18181882389F12DC011961C9111977A
:102CA0008230F1F081811817D9F412962D913C9160
:102CB0001397828193818217930794F0281739071D
:102CC000BCF014968D919D910D90BC91A02D248106
:102CD000358146815781281739074A075B0718F461
:102CE000112341F00AC082179307A407B50740F4E7
:102CF000112319F061E070E005C06FEF7FEF02C0B3
:102D000060E070E0CB011F910895AA1BBB1B51E14D
:102D100007C0AA1FBB1FA617B70710F0A61BB70B4B
:102D2000881F991F5A95A9F780959095BC01CD01F0
:102D3000089597FB092E05260ED057FD04D014D018
:102D40000AD0001C38F450954095309521953F4F9E
:102D50004F4F5F4F0895F6F7909580957095619568
:102D60007F4F8F4F9F4F0895A1E21A2EAA1BBB1BC6
:102D7000FD010DC0AA1FBB1FEE1FFF1FA217B30747
:102D8000E407F50720F0A21BB30BE40BF50B661F5D
:102D9000771F881F991F1A9469F760957095809521
:102DA00090959B01AC01BD01CF0108952F923F92F8
:102DB0004F925F926F927F928F929F92AF92BF924B
:102DC000CF92DF92EF92FF920F931F93CF93DF93F7
:102DD000CDB7DEB7CA1BDB0B0FB6F894DEBF0FBE54
:102DE000CDBF09942A88398848885F846E847D84A1
:102DF0008C849B84AA84B984C884DF80EE80FD80A3
:102E00000C811B81AA81B981CE0FD11D0FB6F89418
:102E1000DEBF0FBECDBFED010895AEE0B0E0E3E14F
:102E2000F7E10C94E4160D891E898F89988D97FF20
:102E300002C080E090E801979E838D831A83098306
:102E400086E08C839E01255E3F4FCE010196698D01
:102E50007A8DA9010E946C194D815E8157FD0AC0CF
:102E60002F813885421753070CF49A01020F131F64
:102E7000F80110822E96E4E00C9400179F939F7740
:102E8000EEE389379E0720F4E8E6F0E01FD109C0A1
:102E9000D4D09058A2EA2AED3FE049EC5FE3A6D4F3
:102EA00034D10F9007FC9058089521D158F080E854
:102EB00091E009F49EEF22D128F040E851E059F466
:102EC0005EEF09C0DBC054C1E92FE0782FD168F371
:102ED000092E052AC1F3261737074807590738F086
:102EE0000E2E07F8E02569F0E025E0640AC0EF63E4
:102EF00007F8009407FADB01B9019D01DC01CA0162
:102F0000AD01EF9341D001D10AD05F91552331F04B
:102F10002BED3FE049E450FD49ECA1CA0895DF9351
:102F2000DD27B92FBF7740E85FE31616170648077D
:102F30005B0710F4D92F23D19F938F937F936F93C7
:102F4000C8D1ECE7F0E09DD0E0D02F913F914F91B8
:102F50005F9126D1DD2349F09058A2EA2AED3FE0A7
:102F600049EC5FE3D0785D2741D4DF91CEC0C6D075
:102F700040F0BDD030F021F45F3F19F079C051111D
:102F8000F8C07CC0D3D098F39923C9F35523B1F38B
:102F9000951B550BBB27AA2762177307840738F0C8
:102FA0009F5F5F4F220F331F441FAA1FA9F333D027
:102FB0000E2E3AF0E0E830D091505040E695001CDB
:102FC000CAF729D0FE2F27D0660F771F881FBB1F97
:102FD000261737074807AB07B0E809F0BB0B802D71
:102FE000BF01FF2793585F4F2AF09E3F510568F0BD
:102FF0003FC0BFC05F3FECF3983EDCF3869577950A
:103000006795B795F7959F5FC9F7880F911D9695BE
:10301000879597F90895E1E0660F771F881FBB1F1A
:10302000621773078407BA0720F0621B730B840BC7
:10303000BA0BEE1F88F7E0950895DF93CF931F93A7
:103040000F938B01EC01E9EAF0E01BD05ED0980110
:10305000AE018B01EC0160E070E080E89FE3CED927
:10306000FAD09801AE010F911F91CF91DF9198C0D6
:1030700097F99F6780E870E060E008959FEF80EC2B
:103080000895DF93CF931F930F93FF92EF92DF92F8
:103090007B018C01689405C0DA2EEF0181D0FE011E
:1030A000E894A5912591359145915591AEF3EF01A5
:1030B0009DD3FE019701A801DA9479F7DF90EF9094
:1030C000FF900F911F91CF91DF9108959F938F9360
:1030D0007F936F93FF93EF939B01AC01EDD9EF9139
:1030E000FF91CFDF2F913F914F915F91E5C9002470
:1030F0000A941616170618060906089500240A945D
:1031000012161306140605060895092E0394000CE2
:1031100011F4882352F0BB0F40F4BF2B11F460FF71
:1031200004C06F5F7F4F8F4F9F4F089557FD90589A
:10313000440F551F59F05F3F71F04795880F97FB7B
:10314000991F61F09F3F79F0879508951216130635
:103150001406551FF2CF4695F1DF08C01616170664
:103160001806991FF1CF8695710561050894089599
:10317000E894BB2766277727CB0197F908959B0131
:10318000AC0160E070E080E89FE390CAB0DF28F017
:10319000B5DF18F0952309F06BCF70CF1124E9CF7C
:1031A000C5DFA0F3959FD1F3950F50E0551F629FA7
:1031B000F001729FBB27F00DB11D639FAA27F00D90
:1031C000B11DAA1F649F6627B00DA11D661F829FB7
:1031D0002227B00DA11D621F739FB00DA11D621F9C
:1031E000839FA00D611D221F749F3327A00D611DB9
:1031F000231F849F600D211D822F762F6A2F11249B
:103200009F5750408AF0E1F088234AF0EE0FFF1FED
:10321000BB1F661F771F881F91505040A9F79E3F24
:10322000510570F025CFA5CF5F3FECF3983EDCF35E
:10323000869577956795B795F795E7959F5FC1F761
:10324000FE2B880F911D9695879597F9089511F497
:103250000EF414CF1EC372DFD0F39923D9F3CEF34B
:103260009F57550B87FF23D30024A0E640EA900127
:1032700080585695979528F4805C660F771F881FB5
:1032800020F026173707480730F4621B730B840BB6
:10329000202931294A2BA6951794079420253125FA
:1032A0004A2758F7660F771F881F20F02617370721
:1032B000480730F4620B730B840B200D311D411D48
:1032C000A09581F7B901842F9158880F969587951D
:1032D00008959B01AC01F0C8ABE0B0E0E2E7F9E192
:1032E0000C94D6163C012B015A01FC011782168260
:1032F000838181FD03C06FEF7FEFC6C19AE0892E05
:103300001E010894211C311CF3012381F20123FDCD
:10331000859123FF81912F01882309F4B2C1853261
:1033200039F423FD859123FF81912F01853229F402
:1033300090E0B3010E945F1BE7CF982FFF24EE249B
:103340009924FFE1FF15D0F09B3269F09C3228F4FC
:10335000903259F0933291F40EC09D3249F090337F
:1033600069F441E024C052E0F52A84E0F82A28C03C
:1033700098E0F92A25C0E0E1FE2A22C0F7FC29C026
:10338000892F80538A3070F4F6FE05C0989C902CEB
:103390001124980E15C0E89CE02C1124E80EF0E2F0
:1033A000FF2A0EC09E3229F4F6FC6BC140E4F42AD9
:1033B00007C09C3619F450E8F52A02C0983649F443
:1033C000F20123FD959123FF91912F01992309F09B
:1033D000B8CF892F8554833018F08052833038F469
:1033E00044E050E0A40EB51E5FE359830FC093364E
:1033F00031F0933779F0933509F056C020C0F501CC
:103400008081898342E050E0A40EB51E610101E095
:1034100010E012C0F501C080D180F6FC03C06FEF50
:103420007FEF02C0692D70E042E050E0A40EB51EAF
:10343000C6010E94541B8C015FE7F52214C0F50100
:10344000C080D180F6FC03C06FEF7FEF02C0692D12
:1034500070E042E050E0A40EB51EC6010E94491B78
:103460008C0150E8F52AF3FE07C01AC080E290E014
:10347000B3010E945F1BEA948E2D90E00817190794
:10348000A8F30EC0F601F7FC8591F7FE81916F015C
:1034900090E0B3010E945F1BE110EA9401501040DC
:1034A0000115110579F7EAC0943611F0993669F5DE
:1034B000F7FE08C0F501208131814281538184E00B
:1034C00090E00AC0F501808191819C01442737FD7D
:1034D0004095542F82E090E0A80EB91E9FE6F92295
:1034E00057FF09C050954095309521953F4F4F4F5C
:1034F0005F4FE0E8FE2ACA01B901A1012AE030E0ED
:103500000E948B1BD82ED21840C0953729F41F2D4E
:103510001F7E2AE030E01DC01F2D197F9F3661F00D
:10352000903720F4983509F0ACC00FC0903739F0CF
:10353000983709F0A6C004C028E030E00AC0106146
:1035400014FD146020E130E004C014FD166020E199
:1035500032E017FF08C0F50160817181828193819B
:1035600044E050E008C0F50180819181BC0180E019
:1035700090E042E050E0A40EB51EA1010E948B1B1A
:10358000D82ED2188FE7F82EF122F6FE0BC05EEF90
:10359000F522D91438F4F4FE07C0F2FC05C08FEE12
:1035A000F82202C01D2D01C0192DF4FE0DC0FE0130
:1035B000ED0DF11D8081803319F499EEF92208C0D8
:1035C0001F5FF2FE05C003C08F2D867809F01F5FD4
:1035D0000F2DF3FC14C0F0FE0FC01E1510F09D2C33
:1035E0000BC09D2C9E0C911A1E2D06C080E290E00F
:1035F000B3010E945F1B1F5F1E15C0F304C01E15A0
:1036000010F4E11A01C0EE2404FF0FC080E390E043
:10361000B3010E945F1B02FF1DC001FD03C088E7CC
:1036200090E00EC088E590E00BC0802F867891F086
:1036300001FF02C08BE201C080E2F7FC8DE290E066
:10364000B3010E945F1B06C080E390E0B3010E94BB
:103650005F1B9A94D914C0F3DA94F101ED0DF11DBA
:10366000808190E0B3010E945F1BDD20A9F706C0B6
:1036700080E290E0B3010E945F1BEA94EE20C1F764
:1036800043CEF30166817781CB012B96E2E10C9466
:10369000F216FC010590615070400110D8F780953A
:1036A00090958E0F9F1F0895FC016150704001900E
:1036B0000110D8F7809590958E0F9F1F08950F9356
:1036C0001F93CF93DF938C01EB018B8181FF1BC094
:1036D00082FF0DC02E813F818C819D812817390783
:1036E00064F4E881F9810193F983E88306C0E885F1
:1036F000F985802F0995892B31F48E819F81019660
:103700009F838E8302C00FEF1FEFC801DF91CF911F
:103710001F910F910895FA01AA27283051F1203105
:1037200081F1E8946F936E7F6E5F7F4F8F4F9F4F55
:10373000AF4FB1E03ED0B4E03CD0670F781F891F97
:103740009A1FA11D680F791F8A1F911DA11D6A0F65
:10375000711D811D911DA11D20D009F468943F9118
:103760002AE0269F11243019305D3193DEF6CF0117
:103770000895462F4770405D4193B3E00FD0C9F7DD
:10378000F6CF462F4F70405D4A3318F0495D31FD4A
:103790004052419302D0A9F7EACFB4E0A69597959D
:1037A000879577956795BA95C9F700976105710573
:1037B00008959B01AC010A2E0694579547953795BD
:1037C0002795BA95C9F7620F731F841F951FA01D17
:1037D00008958DDC30F092DC20F031F49F3F11F43D
:1037E0001EF44CCC0EF4E095E7FB42CCE92F9EDCB6
:1037F00080F3BA17620773078407950718F071F40E
:103800009EF5B6CC0EF4E0950B2EBA2FA02D0B0131
:10381000B90190010C01CA01A0011124FF27591B15
:1038200099F0593F50F4503E68F11A16F040A22F1B
:10383000232F342F4427585FF3CF4695379527958C
:10384000A795F0405395C9F77EF41F16BA0B620B8B
:10385000730B840BBAF09150A1F0FF0FBB1F661FD2
:10386000771F881FC2F70EC0BA0F621F731F841F15
:1038700048F4879577956795B795F7959E3F08F03B
:10388000B3CF9395880F08F09927EE0F97958795FA
:1038900008959F3F31F0915020F487957795679573
:1038A000B795880F911D9695879597F90895915032
:1038B0005040660F771F881FD2F70895F894FFCF06
:1038C000000000010000000000004C0100000000AA
:1038D000000200000000380100000000756E6578ED
:1038E0007065637465642049443B20726563656953
:1038F00076656420256400000000CDCCCC3D00003E
:10390000803F0000000000000000000102020303ED
:103910000303040404040404040405050505050563
:103920000505050505050505050506060606060641
:103930000606060606060606060606060606060627
:103940000606060606060606060607070707070711
:1039500007070707070707070707070707070707F7
:1039600007070707070707070707070707070707E7
:1039700007070707070707070707070707070707D7
:1039800007070707070707070707080808080808C1
:1039900008080808080808080808080808080808A7
:1039A0000808080808080808080808080808080897
:1039B0000808080808080808080808080808080887
:1039C0000808080808080808080808080808080877
:1039D0000808080808080808080808080808080867
:1039E0000808080808080808080808080808080857
:1039F0000808080808080808080808080808080847
:0A3A0000080808080808080808086C
:00000001FF
